:020000040800F2
:100000007008002001010008E52800080325000809
:10001000E1280008470500087931000800000000C9
:10002000000000000000000000000000112E000889
:100030008905000800000000912B0008132E00081D
:100040001B0100081B0100081B0100081B01000820
:100050001B010008BD2B00081B0100081B01000844
:100060001B0100081B0100081B0100084D050008CA
:100070001B0100081B0100081B0100081B010008F0
:100080001B0100081B0100081B0100081B010008E0
:100090001B0100081B0100081B0100081B010008D0
:1000A000A12E0008B12E00081B0100081B0100084A
:1000B000C12E00081B0100081B0100081B010008DD
:1000C0001B0100081B0100081B010008ED2C0008A3
:1000D0001B0100081B0100081B0100081B01000890
:1000E0001B0100081B0100081B010008DFF80CD0F1
:1000F00000F092F800480047F9310008700800202D
:100100000648804706480047FEE7FEE7FEE7FEE7B1
:10011000FEE7FEE7FEE7FEE7FEE7FEE79F2E0008AC
:10012000ED00000840EA01039B0703D009E008C97D
:10013000121F08C0042AFAD203E011F8013B00F8AC
:10014000013B521EF9D27047D2B201E000F8012BF8
:10015000491EFBD270470022F6E710B513460A4647
:1001600004461946FFF7F0FF204610BD421C10F868
:10017000011B0029FBD1801A7047034611F8012B9F
:1001800000F8012B002AF9D11846704780EA0102D5
:1001900010B502F00043400022D04A001FD0010EEB
:1001A00001EB1261C0F35600C2F3560240F40000A6
:1001B00042F40002A0FB022000047F39140400D0A6
:1001C000401C50EA124001D44000491EC2B20C0645
:1001D00004EBD010401C4008802A02D003E000202D
:1001E00010BD20F00100002900DA0020184310BDE6
:1001F00020F00040C10DC0F3160040F400007F293C
:1002000001DA00207047962903DCC1F19601C8404D
:100210007047963988407047064C074D06E0E06805
:1002200040F0010394E8070098471034AC42F6D33D
:10023000FFF760FFDC330008FC33000870B50446AC
:1002400000252068806800F0010018B320688068ED
:1002500020F001002168886000F08AFF054613E065
:1002600000F086FF401B02280ED92068806800F04D
:10027000010048B1A06A40F01000A062E06A40F0BE
:100280000100E062012070BD2068806800F001007C
:100290000028E5D10020F6E770B505466C6AA06A33
:1002A00000F05000E0B9A06A40F40070A06220683D
:1002B000806800F46020B0F5602F0DD1207B58B924
:1002C000A06A20F48070A062A06A00F4805018B97F
:1002D000A06A40F00100A062204600F009FA03E0A5
:1002E000206A016B2846884770BD70B505466C6A68
:1002F000A06A40F04000A062E06A40F00400E062C2
:10030000204600F0F7F970BD70B50446656A2846CE
:1003100000F0EFF970BD000038B50446002500205C
:1003200000902068806800F0010078BB2068806839
:1003300040F0010021688860194800681949B0FB45
:10034000F1F0009002E00098401E00900098002814
:10035000F9D100F00DFF054619E000F009FF401B40
:10036000022814D92068806800F0010078B9A06ADA
:1003700040F01000A062E06A40F00100E06200BFBF
:10038000002084F8240000BF012038BD05E020686B
:10039000806800F001000028DFD00020F5E70000B1
:1003A0002C00002040420F002DE9F04105460E468A
:1003B000144694F83201102839DC2846FFF7D6FE9F
:1003C0000D2802D90020BDE8F08194F8320100F137
:1003D000100794F83201C0EB001204F14200875478
:1003E00094F83221601C00F82270032194F8320145
:1003F000C0EB001204F142001044817394F83211F2
:10040000C1EB011204F142011144481C2946FFF7D7
:10041000B4FE94F8321104F2331000EB8100066050
:1004200094F83201401C84F832010120CBE700200F
:10043000C9E72DE9F04105460E46144694F832010D
:10044000102839DC2846FFF791FE0D2802D900203C
:10045000BDE8F08194F8320100F1100794F8320100
:10046000C0EB001204F14200875494F83221601C62
:1004700000F82270012194F83201C0EB001204F15F
:1004800042001044817394F83211C1EB011204F15F
:1004900042011144481C2946FFF76FFE94F83211BF
:1004A00004F2331000EB8100066094F83201401C26
:1004B00084F832010120CBE70020C9E72DE9F041A3
:1004C00005460E46144694F83201102839DC2846B9
:1004D000FFF74CFE0D2802D90020BDE8F08194F80A
:1004E000320100F1100794F83201C0EB001204F160
:1004F0004200875494F83221601C00F822700221D7
:1005000094F83201C0EB001204F1420010448173F0
:1005100094F83211C1EB011204F142011144481C5C
:100520002946FFF72AFE94F8321104F2331000EB4B
:100530008100066094F83201401C84F832010120E9
:10054000CBE70020C9E700BFFEE7000010B5024876
:1005500000F00CFB10BD0000F000002030B590F85A
:1005600040500124AC40C56B6C6004686360446813
:10057000102C04D10468A2600468E16003E0046800
:10058000A1600468E26030BD704772B600BFFEE74C
:1005900038B5024600230020009000BF92F82400E6
:1005A000012801D1022038BD012082F8240000BFBB
:1005B0004868072812D21068406B0C79641E04EB5F
:1005C00084051F24AC40A0430D796D1E05EB850505
:1005D0000C68AC4020431468606327E048680D282D
:1005E00012D21068006B0C79E41F04EB84051F2401
:1005F000AC40A0430D79ED1F05EB85050C68AC40C0
:1006000020431468206311E01068C06A0C790D3C27
:1006100004EB84051F24AC40A0430D790D3D05EB90
:1006200085050C68AC4020431468E06208680A281D
:1006300012D31068C0680C780A3C04EB4405072408
:10064000AC40A0430D780A3D05EB45058C68AC40F5
:1006500020431468E0600FE0106800690C7804EB38
:1006600044050724AC40A0430D7805EB45058C6894
:10067000AC402043146820610868102802D0086844
:10068000112827D1174C1068A0421ED1106880682D
:1006900000F40000F0B91068806840F400001468AD
:1006A000A0600868102815D10F4800680F4CB0FBF7
:1006B000F4F000EB80004000009002E00098401E43
:1006C000009000980028F9D104E0906A40F02000E2
:1006D0009062012300BF002082F8240000BF18466A
:1006E00061E70000002401402C00002040420F0080
:1006F00070477047704700002DE9F041044600271D
:1007000000250026A84614B90120BDE8F081A068A4
:1007100010B1207D00B100BFA06A30B90020E062B6
:1007200084F82400204600F089F82046FFF786FD73
:100730000746A06A00F01000002873D1002F71D185
:10074000A06A20F4885040F00200A062E16960686D
:100750000843217B40EA41000643A068B0F5807F52
:1007600002D0A068012802D14FF4807000E0002080
:100770000543207D012811D1207B38B9A069401E96
:100780004FF4006141EA4030054307E0A06A40F0C1
:100790002000A062E06A40F00100E062206840684A
:1007A00020F4694028432168486020688068214916
:1007B0000840304321688860A068B0F5807F02D08F
:1007C000A068012802D14FF4807000E00020B0F54D
:1007D000807F03D1208A401E4FEA00582068C06AFB
:1007E00020F4700040EA08002168C8622068806830
:1007F00011490840B04208D10020E062A06A20F010
:10080000020040F00100A06211E0A06A20F00200A6
:1008100040F01000A062E06A40F00100E0620127B1
:1008200005E0FFE7A06A40F01000A062012738460B
:100830006BE70000FDF7E1FFFE0E1FFF10B586B06D
:1008400004460020029003900490059035492068EA
:1008500088423DD100BF3448806940F4007032497D
:1008600088610846806900F40070019000BF00BFF5
:1008700000BF0846806940F004008861084680692E
:1008800000F00400019000BF00BF27200290032069
:10089000039002A9254800F0CDFA254825490860B3
:1008A000002048600021234881608021C160490008
:1008B00001618900416100218161C16100F024FA78
:1008C00008B1FFF762FE00BF1A482062446226E0CA
:1008D00019492068884222D100BF1348806940F43A
:1008E0008060114988610846806900F48060019049
:1008F00000BF00BF00BF0846806940F00400886167
:100900000846806900F00400019000BF00BF072086
:1009100002900320039002A9044800F08BFA06B06D
:1009200010BD0000002401400010024000080140FA
:1009300008000240F0000020002801402DE9F041AD
:1009400004460D461646002757492068884203D0C2
:1009500056492068884205D15348001D006800F4BC
:10096000702000E0002000287ED100BF94F8240011
:10097000012802D10220BDE8F081012084F8240082
:1009800000BF2046FFF7C8FC0746002F6DD1A06AC4
:1009900040F60161884340F48070A06243492068BA
:1009A000884209D14048001D006800F4702008B951
:1009B000012002E0002000E0012078B1A06A20F4CC
:1009C0008010A0622068406800F4806000B3A06AD4
:1009D00020F4005040F48050A06219E0A06A40F476
:1009E0008010A06230492068884203D02F492068D7
:1009F000884205D12C48001D006800F4806000E0AA
:100A0000002028B1A06A20F4005040F48050A06279
:100A1000A06A00F4805020B1E06A20F00600E06295
:100A200001E00020E06200BF002084F8240000BF45
:100A30001F48216A88621F48216AC8621E48216ACD
:100A400008636FF00200216808602068806840F445
:100A5000807021688860226802F14C0133462A4682
:100A6000206A00F085F901E01AE014E0206880684F
:100A700000F46020B0F5602F06D12068806840F453
:100A8000A000216888600CE02068806840F4801035
:100A90002168886005E000BF002084F8240000E0A1
:100AA0000127384667E70000002401400028014084
:100AB0009902000809030008EB02000870B504461B
:100AC000002594F82100022803D00420A06301250A
:100AD00048E02068006820F00E0021680860206867
:100AE000006820F00100216808601F4920688842E2
:100AF00001D1012026E01C4914312068884201D12F
:100B000010201FE0184928312068884201D1801543
:100B100018E015493C312068884201D1801411E069
:100B2000114950312068884202D14FF4803009E0E9
:100B30000D4964312068884202D14FF4801001E0F1
:100B40004FF08070084908394860012084F821007E
:100B500000BF002084F8200000BF606B10B1204669
:100B6000616B8847284670BD0800024070B5044696
:100B7000E06B05682068066894F8401004208840FF
:100B80002840002846D006F00400002842D0206803
:100B9000006800F0200028B92068006820F00400F8
:100BA0002168086057492068884201D1042027E065
:100BB000544914312068884201D1402020E0514935
:100BC00028312068884201D1001519E04D493C3197
:100BD0002068884202D14FF4804011E049495031E9
:100BE0002068884202D14FF4802009E045496431F1
:100BF0002068884202D14FF4800001E04FF080600D
:100C0000404908394860E06A00287AD02046E16A05
:100C1000884776E094F84010022088402840A0B32E
:100C200006F0020088B32068006800F0200040B998
:100C30002068006820F00A0021680860012084F81C
:100C4000210030492068884201D1022028E02D4946
:100C500014312068884201D1202021E0294928311F
:100C60002068884201D140151AE026493C312068AD
:100C7000884202D14FF4005012E0224950312068DE
:100C8000884203D14FF400300AE017E01D49643177
:100C90002068884202D14FF4001001E04FF000704C
:100CA00018490839486000BF002084F8200000BFC0
:100CB000A06A30B32046A16A884722E094F8401029
:100CC000082088402840E0B106F00800C8B120683C
:100CD000006820F00E002168086094F840100120A0
:100CE0008840E16B48600120A06384F8210000BFC8
:100CF000002084F8200000BF206B10B12046216B3B
:100D0000884770BD080002400146002209B9012051
:100D10007047164B0868C01A1423B0FBF3F080002C
:100D2000086412480838C863022081F82100086866
:100D3000026843F6F0708243D1E901031843CB689F
:100D400018430B6918434B6918438B691843CB69E7
:100D5000184302430868026000208863012081F87C
:100D60002100002081F8200000BFD1E708000240E8
:100D70002DE9F04104460D4616461F464FF0000887
:100D800000BF94F82000012802D10220BDE8F081C4
:100D9000012084F8200000BF94F8210001282CD104
:100DA000022084F821000020A0632068006820F061
:100DB0000100216808603B46324629462046FFF77D
:100DC000CDFBE06A30B12068006840F00E00216879
:100DD00008600BE02068006820F0040021680860CB
:100DE0002068006840F00A002168086020680068F8
:100DF00040F001002168086006E000BF002084F890
:100E0000200000BF4FF002084046BFE770B504461F
:100E100000F0AEF906462546681C10B1044800787B
:100E2000054400BF00F0A4F9801BA842FAD370BDAE
:100E3000280000202DE9F8470346002294466EE181
:100E40004FF0010808FA02F4D1F8008008EA040023
:100E5000A0427DD1DFF8DCA2D1F80480A8EB0A091A
:100E6000D0453AD014DCB8F1030F50D009DCB8F10A
:100E7000000F31D0B8F1010F1CD0B8F1020F49D1E9
:100E800020E0B8F1110F18D0B8F1120F42D11EE0D6
:100E9000B9F5881F25D006DCB9F5803F20D0B9F51B
:100EA000801F37D11AE0B9F5001F18D0B9F5041F1B
:100EB00030D117E0D1F80CC02DE0D1F80C8008F14A
:100EC000040C28E0D1F80C8008F1080C23E0D1F8DC
:100ED0000C8008F10C0C1EE000BF00BF00BF00BF7B
:100EE00000BF00BFD1F80880B8F1000F02D14FF069
:100EF000040C0BE0D1F80880B8F1010F03D14FF0DA
:100F0000080C1C6102E04FF0080C5C6103E04FF03C
:100F1000000C00E000BF00BFFF2801D8984601E0A8
:100F200003F104084646FF2802D84FEA820803E08E
:100F3000A2F108084FEA88084746D6F800804FF02B
:100F40000F0909FA07F928EA09080CFA07F900E07D
:100F500088E048EA0908C6F80080D1F8048008F063
:100F60008058B8F1805F7DD100BFDFF8CC81D8F820
:100F7000188048F00108DFF8C091C9F81880C84609
:100F8000D8F8188008F00108CDF8008000BF00BF35
:100F90004FEAB9384FEA920958F829504FEA827857
:100FA0004FEA18794FF00F0808FA09F825EA080502
:100FB000DFF88881434502D14FF0000816E0DFF8E2
:100FC0008081434502D14FF001080FE0DFF87481C2
:100FD000434502D14FF0020808E0DFF86C81434539
:100FE00002D14FF0030801E04FF004084FEA827984
:100FF0004FEA197908FA09F848EA0505DFF84C8143
:101000004FEA920948F82950D1F8048008F4801872
:10101000B8F5801F0AD1DFF83881D8F8008048EA97
:101020000008DFF82C91C9F8008009E0DFF8208182
:10103000D8F8008028EA0008DFF81491C9F8008089
:10104000D1F8048008F40018B8F5001F10D1DFF8BB
:10105000008108F10408D8F8008048EA0008DFF8A9
:10106000F09000E05AE009F10409C9F800800DE0B1
:10107000DFF8DC8008F10408D8F8008028EA0008CE
:10108000DFF8CC9009F10409C9F80080D1F8048098
:1010900008F40038B8F5003F0ED1DFF8B480A8F1AD
:1010A0000408D8F8008048EA0008DFF8A490A9F105
:1010B0000409C9F800800DE0DFF89480A8F1040865
:1010C000D8F8008028EA0008DFF88490A9F1040924
:1010D000C9F80080D1F8048008F48038B8F5803F62
:1010E0000ED1DFF86C80A8F10808D8F8008048EA33
:1010F0000008DFF85C90A9F10809C9F800800DE04C
:10110000DFF84C80A8F10808D8F8008028EA000829
:10111000DFF83C90A9F10809C9F80080521CD1F809
:10112000008028FA02F8B8F1000F7FF489AEBDE81C
:10113000F887000000001110001002400008014074
:10114000000C014000100140001401400800014063
:1011500008040140024693680B400BB1012000E0F7
:10116000002070470AB1016101E00B040361704780
:101170000148006870470000200000200348006814
:10118000034909780844014908607047200000209D
:101190002800002010B50848006840F010000649FB
:1011A0000860032000F0B0F80F2000F007F800F00E
:1011B0002BF8002010BD00000020024070B504464E
:1011C0000E4800784FF47A71B1FBF0F00C490968D1
:1011D000B1FBF0F5284600F01BFF08B1012070BDFF
:1011E000102C07D200222146501E00F04FF805486F
:1011F000046001E00120F2E70020F0E72800002071
:101200002C0000202400002008B500BF154880698C
:1012100040F00100134988610846806900F0010030
:10122000009000BF00BF00BF0846C06940F080507A
:10123000C8610846C06900F08050009000BF00BF40
:1012400000221146052000F021F8052000F00EF8DC
:1012500000BF0549486820F0E06040F00070486039
:1012600000BF08BD001002400000014001460846D2
:10127000002809DB00F01F0301229A4043099B006C
:1012800003F1E023C3F8002100BF70472DE9F05FB0
:1012900080460D461646002701F070FF0746394686
:1012A0002A46334601F00700C0F1070ABAF1040FDD
:1012B00002D94FF0040A01E0C0F1070AD14600F15B
:1012C000040ABAF1070F02D24FF0000A01E0A0F1C0
:1012D000030AD4464FF0010A0AFA09FAAAF1010AF0
:1012E0000AEA020A0AFA0CFA4FF0010B0BFA0CFB9D
:1012F000ABF1010B0BEA030B4AEA0B042146404613
:1013000001F044FFBDE8F09F00BF00F00702064B6C
:1013100019684FF6FF031940044B0B4343EA0221BF
:10132000014B196000BF70470CED00E00000FA05AA
:10133000F8B5044600260025207800F001000028BA
:101340006BD000274348C06900F0805070B900BFDF
:101350004048C06940F080503E49C8610846C069B5
:1013600000F08050009000BF00BF01273A4800689D
:1013700000F48070B0B93848006840F48070364995
:101380000860FFF7F5FE064606E0FFF7F1FE801B5A
:10139000642801D90320F8BD2F48006800F480704C
:1013A0000028F2D02B48006A00F440752DB3A088C5
:1013B00000F44070A84220D02648006A20F440750E
:1013C000012026490860002008602248056205F0D7
:1013D000010090B1FFF7CCFE064608E0FFF7C8FE1B
:1013E000801B41F28831884201D90320D3E7194894
:1013F000006A00F002000028F0D01648006A20F4CD
:1014000040706168084313490862012F04D10846FF
:10141000C06920F08050C86100BF207800F0020051
:10142000022807D10B48406820F44040A1680843D7
:1014300008494860207800F01000102807D10548BE
:10144000406820F48000E1680843024948600020B9
:10145000A1E700000010024000700040400442423A
:1014600070B504460D460CB9012070BD5A4800689D
:1014700000F00700A8420ED25748006820F007008D
:101480002843554908600846006800F00700A84254
:1014900001D00120E9E7207800F0020002281DD1E8
:1014A000207800F00400042805D14C48406840F43E
:1014B000E0604A494860207800F00800082805D11B
:1014C0004648406840F4605044494860434840689A
:1014D00020F0F000A168084340494860207800F0FF
:1014E000010078B36068012806D13C48006800F428
:1014F000003090B90120B8E76068022806D137486B
:10150000006800F0007040B90120AEE73348006881
:1015100000F0020008B90120A7E73048406820F039
:101520000300616808432D494860FFF721FE064625
:1015300009E0FFF71DFE801B41F28831884202D985
:10154000032092E707E02548406800F00C0061683E
:10155000B0EB810FEDD12048006800F00700A842F1
:101560000ED91D48006820F0070028431A4908607A
:101570000846006800F00700A84201D0012074E787
:10158000207800F00400042807D11448406820F4B3
:10159000E060E168084311494860207800F00800E5
:1015A000082808D10D48406820F46050216940EABD
:1015B000C1000A49486000F019F808494968C1F3B8
:1015C0000311074A515CC840064908600648006894
:1015D000FFF7F4FD002048E7002002400010024021
:1015E000A63300082C0000202400002070B5002144
:1015F0000022002400230020134D696801F00C052F
:10160000F5B1042D02D0082D19D101E00F4819E0E1
:101610000F4DC1F38346AB5D01F4803555B10A4DE2
:101620006D68C5F340450B4E725D084D5D43B5FBDB
:10163000F2F402E0084D03FB05F4204602E000BF8F
:10164000024800BF00BF70BD0010024000127A00C7
:1016500094330008A433000800093D00F8B504469F
:101660000CB90120F8BD207800F00100002878D0E6
:10167000F848406800F00C0004280CD0F548406899
:1016800000F00C00082811D1F248406800F48030C6
:10169000B0F5803F0AD1EF48006800F40030002820
:1016A0005FD0606800285CD10120DBE700BF606884
:1016B000B0F5803F06D1E748006840F48030E54946
:1016C000086028E0606858B9E248006820F480307B
:1016D000E04908600846006820F4802008601AE0AD
:1016E0006068B0F5A02F0BD1DA48006840F4802084
:1016F000D84908600846006840F4803008600AE075
:10170000D448006820F48030D24908600846006858
:1017100020F48020086000BF606888B1FFF728FDD2
:10172000054606E0FFF724FD401B642801D903208D
:1017300098E7C848006800F400300028F2D010E0B4
:10174000FFF716FD054606E0FFF712FD401B642873
:1017500001D9032086E7BF48006800F40030002864
:10176000F2D1207800F00200022857D1B948406831
:1017700000F00C0050B1B748406800F00C00082899
:1017800018D1B448406800F4803098B9B148006876
:1017900000F0020020B12069012801D0012061E79A
:1017A000AC48006820F0F800616940EAC100A9492E
:1017B000086033E02069E8B10120A7490860FFF71D
:1017C000D7FC054606E0FFF7D3FC401B022801D9F1
:1017D000032047E79F48006800F002000028F2D08D
:1017E0009C48006820F0F800616940EAC10099490E
:1017F000086013E0002098490860FFF7B9FC05462F
:1018000006E0FFF7B5FC401B022801D9032029E7B9
:101810009048006800F002000028F2D1207800F023
:10182000080008282DD1A069B8B101208B490860B3
:10183000FFF79EFC054606E0FFF79AFC401B0228D6
:1018400001D903200EE78348406A00F00200002817
:10185000F2D0012001F09EF913E000207F490860DA
:10186000FFF786FC054606E0FFF782FC401B0228D6
:1018700001D90320F6E67748406A00F0020000280C
:10188000F2D1207800F00400042873D100277148B9
:10189000C06900F0805070B900BF6E48C06940F068
:1018A00080506C49C8610846C06900F080500090C3
:1018B00000BF00BF01276A48006800F48070B0B91B
:1018C0006748006840F4807065490860FFF750FC85
:1018D000054606E0FFF74CFC401B642801D90320B5
:1018E000C0E65F48006800F480700028F2D000BFB6
:1018F000E068012806D15748006A40F001005549C8
:10190000086227E0E06858B95248006A20F00100F8
:10191000504908620846006A20F00400086219E095
:10192000E06805280BD14B48006A40F004004949A3
:1019300008620846006A40F0010008620AE0454873
:10194000006A20F00100434908620846006A20F05E
:101950000400086200BFE068A0B1FFF709FC05467B
:1019600009E0FFF705FC401B41F28831884202D9AB
:10197000032077E622E03748006A00F002000028E2
:10198000EFD012E0FFF7F4FB054608E0FFF7F0FBAD
:10199000401B41F28831884201D9032062E62D487C
:1019A000006A00F002000028F0D1012F05D129487B
:1019B000C06920F080502749C86100BFE069C8B302
:1019C0002448406800F00C00082860D0E069022834
:1019D00048D1002020490866FFF7CAFB054606E00B
:1019E000FFF7C6FB401B022801D903203AE619483D
:1019F000006800F000700028F2D1206AB0F5803F46
:101A000007D11448406820F40030A1680843114908
:101A10004860D4E9080108430E49496821F474116B
:101A200008430C49486001200B490866FFF7A0FBFA
:101A3000054607E03DE0FFF79BFB401B022801D96C
:101A400003200FE60348006800F000700028F2D081
:101A50002FE0000000100240000042428004424299
:101A600000700040002014490866FFF781FB05461E
:101A700006E0FFF77DFB401B022801D90320F1E5BA
:101A80000E48006800F000700028F2D111E0E06913
:101A9000012800D1E6E50948466806F48031206A4D
:101AA000814204D106F47011606A814201D00120A4
:101AB000D8E50020D6E500000000424200100240B8
:101AC00070470000F8B504462068466820688568BD
:101AD000C5F3801048B905F0010030B1C6F380109D
:101AE00018B12046216C8847F8BDC5F3400030B1DD
:101AF000C6F3C01018B12046616C8847F4E7C5F3FF
:101B0000401018B9C5F38010002871D0C6F34010FA
:101B100000286DD0C5F38010F0B194F8510003286F
:101B20000ED0606D40F00400606500BF00200090A2
:101B30002068C068009020688068009000BF0BE0BB
:101B400000BF002000902068C06800902068806876
:101B5000009000BF00BFC7E7C5F3401088B1606DBB
:101B600040F00100606500BF0020009020688068A0
:101B700000902068006820F040002168086000BFE5
:101B800000BF606D70B32068406820F0E0002168FD
:101B90004860012084F8510006F0020010B906F0F8
:101BA000010000B32068406820F00300216848600D
:101BB000E06C50B10F48E16C4863E06CFEF77EFFCB
:101BC00018B1606D40F040006065A06C50B10948EC
:101BD000A16C4863A06CFEF771FF18B1606D40F016
:101BE0004000606502E02046FFF76AFF7CE7FFE700
:101BF00000BF79E7FD2C000810B504460CB90120A0
:101C000010BD606A38B96068B0F5827F00D105E028
:101C10000021E16102E00021216161610021A162F6
:101C200094F8510028B9002084F85000204600F0B4
:101C300043F8022084F851002068006820F040003A
:101C400021680860A08800F48270218901F40441B1
:101C50000843A18901F400610843217C01F00201DD
:101C60000843217D01F001010843218B01F400713B
:101C70000843217F01F0380108432021095D01F06C
:101C800080010843218D01F4005108432168086058
:101C90000421A06901EA1040216848602068C069F9
:101CA00020F400602168C86100206065012084F88C
:101CB00051000020A4E7000010B586B004460020C3
:101CC00002900390049005903C49206888423FD1DF
:101CD00000BF3B48806940F480503949886108461C
:101CE000806900F48050019000BF00BF00BF08462B
:101CF000806940F0080088610846806900F00800AB
:101D0000019000BF00BF2820029002200390032012
:101D1000059002A92B48FFF78DF8102002900020B3
:101D20000390049002A92748FFF784F800BF2649D2
:101D3000486840F0E06040F00100486000BF0022C9
:101D400011462320FFF7A2FA2320FFF78FFA33E092
:101D50001E49206888422FD100BF1948C06940F44D
:101D600080401749C8610846C06900F4804001906E
:101D700000BF00BF00BF0846806940F008008861CE
:101D80000846806900F00800019000BF00BF4FF4D2
:101D900020400290022003900320059002A90948E8
:101DA000FFF748F84FF48040029000200390049021
:101DB00002A90448FFF73EF806B010BD003001400C
:101DC00000100240000C01400000014000380040BB
:101DD0002DE9FF5F0446884691461D460E9E012070
:101DE00002900020019000BF94F85000012803D118
:101DF000022004B0BDE8F09F012084F8500000BF2D
:101E0000FFF7B6F9074694F851B060680390AA4608
:101E1000BBF1010F0BD00398B0F5827F04D1A0680D
:101E200010B9BBF1040F02D002200190E9E0B8F133
:101E3000000F03D0B9F1000F00D015B901200190B7
:101E4000DFE094F85100042802D0052084F8510006
:101E500000206065C4F83890E587A587C4F8308015
:101E6000E586A586206460642068006800F0400074
:101E7000402805D02068006840F0400021680860D4
:101E8000E068B0F5006F4DD1606810B1BAF1010F94
:101E900009D1206B00882168C860206B801C2063FA
:101EA000E08E401EE08636E02068806800F0020088
:101EB000022810D1E08E70B1029801280BD1206B5E
:101EC00000882168C860206B801C2063E08E401E63
:101ED000E086002002902068806800F0010068B170
:101EE000E08F58B12068C068A16B0880A06B801C8F
:101EF000A063E08F401EE08701200290FFF738F9D1
:101F0000C01BB04207D3701C28B1032001900120F0
:101F100084F8510075E0E08E0028C5D1E08F0028DC
:101F2000C2D14DE0606810B1BAF1010F09D1206B48
:101F3000007821680873206B401C2063E08E401EEF
:101F4000E08637E02068806800F00200022810D1A7
:101F5000E08E70B1029801280BD1206B00782168C7
:101F60000873206B401C2063E08E401EE08600203A
:101F700002902068806800F0010068B1E08F58B1DD
:101F80002068C068A16B0870A06B401CA063E08F44
:101F9000401EE08701200290FFF7EAF8C01BB04224
:101FA00001D3701C00B92EB903200190012084F8E0
:101FB000510026E0E08E0028C4D1E08F0028C1D176
:101FC0003A463146204600F0A3FE20B101200190A0
:101FD0002020606515E0A06850B900BF0020009087
:101FE0002068C068009020688068009000BF00BF33
:101FF000606D10B10120019002E0012084F85100D1
:1020000000BF00BF002084F8500000BF0198F0E638
:1020100070B504462546681EB0F1807F01D30120CB
:102020000FE0681E4FF0E02148610F214FF0FF30B4
:1020300001F0ACF800204FF0E02188610720086132
:10204000002070BD7047704730B502460B4600BF98
:1020500092F83C00012801D1022030BD012082F815
:102060003C0000BF022082F83D0010684468106800
:10207000816824F070041868044310684460104DAF
:102080001068A8420BD01068B0F1804F07D00D4DFA
:102090001068A84203D00C4D1068A84205D121F069
:1020A00080015868014310688160012082F83D007A
:1020B00000BF002082F83C0000BF00BFCDE7000059
:1020C000002C0140000400400008004010B5044608
:1020D0000CB9012010BD94F83D0028B9002084F807
:1020E0003C00204600F026F8022084F83D00211D27
:1020F000206800F0EDFE012084F8460000BF84F85F
:102100003E0001213F20015540200155412001554D
:1021100000BF00BF012084F8420043200155442045
:1021200001554520015500BF012084F83D000020E5
:10213000D0E7000038B504461E49206888421ED109
:1021400000BF1D48806940F400601B498861084653
:10215000806900F40060009000BF00BF00221146BB
:102160001820FFF793F81820FFF780F80022114697
:102170001920FFF78BF81920FFF778F819E020688D
:10218000B0F1804F15D100BF0B48C06940F001008D
:102190000949C8610846C06900F00100009000BF0D
:1021A00000BF002211461C20FFF770F81C20FFF72B
:1021B0005DF838BD002C014000100240014691F846
:1021C0003D00012801D001207047022081F83D0028
:1021D0000868C06840F001000B68D860124B0868BE
:1021E00098420BD00868B0F1804F07D00F4B0868B9
:1021F000984203D00E4B086898420CD1086880685A
:1022000000F00702062A0CD00868006840F00100C0
:102210000B68186005E00868006840F001000B6872
:1022200018600020D0E70000002C014000040040AE
:10223000000800402DE9F04104460D46002700BF8C
:1022400094F83C00012802D10220BDE8F081012071
:1022500084F83C0000BF022084F83D0020688668B6
:1022600026F0770626F47F46206886602868502886
:1022700033D00CDC202850D004DC00284BD01028B0
:1022800051D149E0302849D040284CD139E060286C
:102290002DD0702807D0B0F5805F03D0B0F5005F77
:1022A00041D10DE041E0D5E902136A68206800F0F1
:1022B00049FE2068866846F077062068866034E02C
:1022C000D5E902136A68206800F03CFE2068806847
:1022D00040F480402168886027E0EA6869682068E7
:1022E00000F044FE5021206800F037FE1DE0EA684F
:1022F0006968206800F04DFE6021206800F02DFE26
:1023000013E0EA686968206800F030FE4021206828
:1023100000F023FE09E000BF00BF00BF296820686D
:1023200000F01BFE01E0012700BF00BF012084F880
:102330003D0000BF002084F83C0000BF384684E721
:10234000704710B5044620680069C0F34000D8B15A
:102350002068C068C0F34000B0B16FF0020021688F
:102360000861012020772068806900F0030018B11F
:102370002046FFF7E5FF05E0204600F0ADF82046D7
:1023800000F0ABF80020207720680069C0F38000DF
:10239000D8B12068C068C0F38000B0B16FF004000D
:1023A00021680861022020772068806900F440706D
:1023B00018B12046FFF7C4FF05E0204600F08CF876
:1023C000204600F08AF80020207720680069C0F3DA
:1023D000C000D8B12068C068C0F3C000B0B16FF0D1
:1023E000080021680861042020772068C06900F097
:1023F000030018B12046FFF7A3FF05E0204600F0D8
:102400006BF8204600F069F800202077206800690A
:10241000C0F30010D8B12068C068C0F30010B0B19C
:102420006FF0100021680861082020772068C069DB
:1024300000F4407018B12046FFF782FF05E0204607
:1024400000F04AF8204600F048F800202077206885
:10245000006900F0010058B12068C06800F0010078
:1024600030B16FF0010021680861204600F036F8B5
:1024700020680069C0F3C01058B12068C068C0F37C
:10248000C01030B16FF08000216808612046FFF76E
:10249000D9FD20680069C0F3801058B12068C06879
:1024A000C0F3801030B16FF0400021680861204611
:1024B00000F026F820680069C0F3401058B1206889
:1024C000C068C0F3401030B16FF02000216808618F
:1024D0002046FFF7B8FD10BD7047704710B50446A1
:1024E0000448844204D1142203490448FEF726FA22
:1024F00010BD0000E40100204000002090000020FA
:10250000704700BFFEE7000010B540F273110D48A0
:10251000FDF721FE0C4800210180002005E000228B
:102520000A4901EB80010A60401C1028F7DB0A20F1
:10253000044908700B2081F84100002081F8320125
:1025400010BD0000BC0200203E000020EF03002070
:102550000EB50020009001900290234823490860A6
:102560008115224881600021017301754FF46021BB
:10257000C16100201D49486004211C480161FEF72B
:10258000BBF808B1FEF701F800200090012001908F
:102590000220029069461548FDF7FAFF08B1FDF7E1
:1025A000F4FF012000900220019069460F48FDF7DA
:1025B000EFFF08B1FDF7E9FF022000900320019032
:1025C00069460A48FDF7E4FF08B1FDF7DEFF052084
:1025D00000900420019069460448FDF7D9FF08B136
:1025E000FDF7D3FF0EBD0000002401409000002045
:1025F0000EB500200090019002902048204908600C
:1026000081151F4881600021017301754FF460211D
:10261000C16100201A494860042119480161FEF790
:102620006BF808B1FDF7B1FF002000900120019088
:102630000020029069461248FDF7AAFF08B1FDF795
:10264000A4FF0220019069460D48FDF7A1FF08B1E3
:10265000FDF79BFF0320019069460948FDF798FFAD
:1026600008B1FDF792FF0420019069460448FDF788
:102670008FFF08B1FDF789FF0EBD00000028014063
:10268000C000002008B500BF0A48406940F00100C2
:10269000084948610846406900F00100009000BF09
:1026A00000BF002211460B20FEF7F0FD0B20FEF7C5
:1026B000DDFD08BD0010024000B585B0002001908E
:1026C00002900390049000BF2948806940F02000E8
:1026D000274988610846806900F02000009000BF0B
:1026E00000BF00BF0846806940F0040088610846CA
:1026F000806900F00400009000BF00BF00BF0846E2
:10270000806940F0080088610846806900F0080090
:10271000009000BF00BF002218211648FEF722FDDE
:10272000002201211448FEF71DFD18200190012010
:102730000290002003900220049001A90D48FEF7AA
:1027400079FB012001900290002003900220049068
:1027500001A90948FEF76EFB0220019000200290BB
:102760000120039001A90448FEF764FB05B000BDF9
:102770000010024000080140000C014010B50E4856
:102780000E4908604FF48270486000210B48816058
:10279000C160016141614FF4007181612021C1611B
:1027A00000210162416281620A21C162FFF724FABD
:1027B00008B1FDF7EAFE10BD0030014034010020F1
:1027C00010B50E480E4908604FF482704860002131
:1027D0000B488160C160016141614FF4007181610A
:1027E0000021C1610162416281620A21C162FFF779
:1027F00003FA08B1FDF7C9FE10BD00000038004023
:102800008C01002000B587B0002003900490059053
:1028100006900190029015481549086047204860CD
:1028200000211348816040F2E731C160002101615D
:1028300041618161FFF74AFC08B1FDF7A6FE4FF444
:102840008050039003A90A48FFF7F4FC08B1FDF794
:102850009CFE00200190029001A90548FFF7F4FBBF
:1028600008B1FDF792FE07B000BD0000002C01404A
:10287000E401002000B587B000200390049005908B
:102880000690019002904FF0804014490860472064
:10289000486000211148816044F61F61C160002139
:1028A00001618161FFF712FC08B1FDF76EFE4FF484
:1028B0008050039003A90948FFF7BCFC08B1FDF75D
:1028C00064FE00200190029001A90448FFF7BCFBC0
:1028D00008B1FDF75AFE07B000BD00002C02002031
:1028E00000BFFEE700BFFEE770B504460D460026B8
:1028F00005F07005204600F03DF80646002208214C
:102900000A48FEF72FFC2721D4E90020904745EA2A
:102910000601D4E900209047012208210348FEF770
:1029200021FC204600F026F870BD000000080140A0
:1029300070B504460D462946204600F04AFC70BD9D
:1029400070B504460D46002208210948FEF70AFC2E
:102950002946D4E900209047FF21D4E90020904780
:102960000646012208210248FEF7FCFB304670BDF6
:102970000008014070B50446002208210748FEF710
:10298000F1FB0721D4E900209047054601220821E8
:102990000248FEF7E7FB284670BD00000008014032
:1029A00070B506460D4606213046FFF7C9FF20F0F8
:1029B000070435B1012D06D0022D07D0032D0BD110
:1029C00007E000BF09E044F0020406E044F004041C
:1029D00003E044F0060400E000BF00BF22460621E9
:1029E000304600F0BBF870BD2DE9F04106460C46BC
:1029F00017461D46052D01DD052000E02846054649
:102A0000052C01DD052000E02046044604F10A0003
:102A1000C1B22B463A46304600F07CF8BDE8F08162
:102A200070B506460D461446052C01DD052000E074
:102A30002046044623462A461021304600F06AF814
:102A400070BD000070B504460D4600260022082126
:102A50002D48FEF787FBE121D4E9002090470122B1
:102A600008212948FEF77EFB002201212748FEF7B6
:102A700079FB95F820302A46A021204600F04AF83C
:102A8000012211462148FEF76DFB10E00120FEF700
:102A9000BDF93046711C8EB2B0F5FA7F07D12046E1
:102AA00000F08EF80021204600F0F8F809E002213D
:102AB0001648FEF74FFB012800D100E00020002857
:102AC000E4D100BF07212046FFF73AFF1049087004
:102AD000084602780721204600F040F80C480078AC
:102AE00000F0100030B1FF22E121204600F036F85E
:102AF000102070BD0648007800F0200008B12020AA
:102B0000F7E7FF20F5E7000000080140000C014056
:102B10003C0000202DE9F04104460E461746984639
:102B2000002208210C48FEF71DFB46F02001D4E9E5
:102B300000209047002505E0795DD4E9002090470A
:102B4000681CC5B24545F7DB012208210248FEF7A3
:102B500009FBBDE8F08100000008014070B50446A3
:102B60000D461646002208210848FEF7FBFA45F0FC
:102B70002001D4E9002090473146D4E90020904755
:102B8000012208210148FEF7EDFA70BD000801405E
:102B90007047000008B508490968C9084FF47A72FF
:102BA000B1FBF2F14143009100BF00BF00994A1E02
:102BB00000920029F9D108BD2C00002070470000C8
:102BC0001CB504462BA103C9CDE9000170212046A4
:102BD000FFF78AFE01221C212046FFF7BFFF0722D4
:102BE0001D212046FFF7BAFF1C212046FFF7A8FE53
:102BF0001D212046FFF7A4FE0A2200212046FFF7F0
:102C0000ADFF012211462046FFF7A8FF0122022155
:102C10002046FFF7A3FFFF2204212046FFF79EFF77
:102C2000032211462046FFF799FF00220521204686
:102C3000FFF794FF0F2206212046FFF78FFF0522A2
:102C400069462046FFF7ECFE05236A460021204630
:102C5000FFF7CAFE002201212046FFF77FFF012275
:102C600002212046FFF77AFF0F2200212046FFF7BE
:102C700075FF1CBD344310100100000003480449D7
:102C800048640449486004480860704734010020E3
:102C900074020020340000203129000870B5054678
:102CA0000C46002600212846FFF74AFE0646002271
:102CB00001210D48FEF756FA2CB9022200212846C0
:102CC000FFF74CFF06E0012C04D103220021284627
:102CD000FFF744FF012211460348FEF743FA4FF481
:102CE0007A70FEF793F870BD000C014010B50248F1
:102CF000FEF7E8FE10BD00003401002070B5054667
:102D00006C6A0020E087E0862046FEF7D9FE70BDA1
:102D1000F8B504460D4616462B4600228021204673
:102D2000009600F009F828B1606D40F02000606561
:102D30000320F8BD0020FCE72DE9F84F04460D46BE
:102D400090461E46DDF82890FEF712FAA0EB090027
:102D5000371AFEF70DFA82462C480068C0F3CB30D4
:102D60007843009045E0701C002842D0FEF700FA3E
:102D7000A0EB0A00B84200D2A7BB2068406820F050
:102D8000E000216848606068B0F5827F0DD1A068DE
:102D9000B0F5004F03D0A068B0F5806F05D1206872
:102DA000006820F0400021680860A06AB0F5005F6C
:102DB0000DD100BF2068006820F400502168086031
:102DC0002068006840F400502168086000BF0120BE
:102DD00084F8510000BF002084F8500000BF032099
:102DE000BDE8F88FFFE7009800B900270098401E63
:102DF0000090206880682840A84201D1012000E0AE
:102E000000204045AFD10020EAE700002C00002060
:102E1000704710B5FEF7B2F910BD00B593B0282188
:102E200009A8FDF798F9142104A8FDF794F90020EA
:102E300000900190029003900120099000040A90F4
:102E400000200B9001200D9002201090C1031191E1
:102E50004FF4E011129109A8FEF700FC08B1FDF74C
:102E600094FB0F20049002200590002006904FF460
:102E70008060079000200890022104A8FEF7F0FA75
:102E800008B1FDF782FB02200090800302906846A3
:102E9000FEF74EFA08B1FDF778FB13B000BD70479E
:102EA00010B50248FFF74DFA10BD0000E401002004
:102EB00010B50248FFF745FA10BD0000E4010020FC
:102EC00010B50248FFF73DFA10BD00002C020020AB
:102ED00010B50268184B984208D0B0F1804F05D069
:102EE000164B984202D0164B984203D122F0700242
:102EF0004B681A43104B984208D0B0F1804F05D070
:102F00000E4B984202D00E4B984203D122F44072ED
:102F1000CB681A4322F080034C6943EA0402026042
:102F20008B68C3620B688362034B984201D10B69C3
:102F300003630123436110BD002C014000040040E5
:102F40000008004030B50C46816821F47F4142EA18
:102F5000032525432943816030BD0A46816821F05D
:102F6000700142F0070319438160704730B50B468A
:102F70001446026A056A25F001050562816921F09F
:102F8000F00141EA041122F00A021A43816102624F
:102F900030BD30B50B461446026A056A25F01005AF
:102FA0000562816921F4704141EA043122F0A002F6
:102FB00042EA03128161026230BD00002DE9F04156
:102FC0000446002500260F2737E020211E48FDF784
:102FD000C2F894F841202846691CCDB21A490A5417
:102FE00094F832212846691CCDB217490A5413E0DF
:102FF0003246731CDEB2C2EB021304F1420299188E
:10300000114A50193A46FDF78DF8E819C5B294F8FF
:103010003201B04200D102E0E8192028E8DD00BF0B
:10302000202209490948FDF77DF808490848FFF7BB
:1030300009FD00250A20FDF7E9FE94F83201B042AF
:10304000C3DC0120BDE8F0814F04002074020020A1
:103050003400002010B509480078322808DA084802
:10306000FFF7ACFF05480078401C0449087002E0F7
:10307000034800F007F8012010BD00003D000020CB
:10308000BC0200202DE9F04104460026002504275B
:1030900062E020213448FDF75EF822783046711C4A
:1030A000CEB231490A5494F832213046711CCEB266
:1030B0002D490A543FE0C5EB051104F142000844D4
:1030C000807B012804D0022803D0032820D10CE003
:1030D00000BF04F2331000EB850000680188601C1B
:1030E00000EB8500A0F8011012E004F2331101EBAF
:1030F0008501096808681D49FDF748F88046FDF715
:1031000077F881B2601C00EB8500A0F8011000BFC9
:1031100000BF2A466B1CDDB2631C03EB8201124A1E
:1031200090193A46FCF7FEFFF019C6B294F8320146
:10313000A84200D102E0F0192028BCDD00BF202207
:1031400009490B48FCF7EEFF09490A48FFF77AFCEA
:1031500000260A20FDF75AFE94F83201A84298DCB6
:103160000120BDE8F08100002F0400200000C842CB
:10317000740200203400002000BFFEE7024800680F
:10318000C0F30220704700000CED00E010B50028ED
:1031900004DB0A07130E054A135406E00A07140E4F
:1031A000034A00F00F031B1FD45410BD00E400E0DD
:1031B00018ED00E002E008C8121F08C1002AFAD189
:1031C00070477047002001E001C1121F002AFBD1A7
:1031D000704713B582B00446002001904FF6FF708F
:1031E000012301AA03A900902046FEF7F1FD9DF8F6
:1031F000040004B010BD0000FDF7CCFFFFF70DFE8A
:10320000FFF75AFAFFF73EFAFFF7B8FAFFF732FB7B
:10321000FFF79EF9FFF7ECF9FFF7D2FAFFF7F2FAA2
:103220003B48FEF7CBFF3B48FEF7C8FFFFF726FD04
:103230003948FFF7C5FC00213748FFF7B1FB0622EC
:1032400011463548FFF78AFC00213348FFF726FD79
:103250002020324981F82000FFF756F9304A3149E1
:1032600031A0FDF7E6F82E4A314932A0FDF726F9E4
:103270002B4A324932A0FDF797F8294A324933A048
:10328000FDF7D7F8264A334933A0FDF7D2F8244A90
:103290003049891C32A0FDF7CCF8214A2D49091D7F
:1032A00031A0FDF7C6F81E4A2A49891D30A0FDF756
:1032B000C0F81B4A274908312FA0FDF7BAF8184A71
:1032C00024490A312EA0FDF7B4F820E01548008803
:1032D000401C00B2134908800846B0F90000642879
:1032E00004DD08460088643800B20880FFF7B2FEAB
:1032F00025480068FDF78AFD07210748FFF720FBF6
:1033000022490870054890F8220021490870DDE73D
:10331000E40100202C020020340000207402002070
:10332000BC02002004000020746573745F3100004B
:1033300006000020746573745F32000008000020EE
:10334000746573745F3300000C000020746573743F
:103350005F3400000E000020746573745F35000058
:10336000746573745F360000746573745F370000B2
:10337000746573745F380000746573745F3900009E
:10338000746573745F3130001C0000200000002061
:103390000100002002030405060708090A0B0C0DB2
:1033A0000E0F1010010200000000000000000102DA
:1033B00003040607080900000000010203040000DE
:1033C000524632344C3031206973206E6F7420665F
:1033D000696E6420212E2E2E00000000FC330008B0
:1033E0000000002040000000B43100083C34000818
:1033F0004000002030080000C43100080000000038
:103400000A000A005C8F2A410A0001000200030042
:103410000400050006000000140000000000000089
:1034200010000000010000000024F400C033000878
:0C34300000000000000000000000000090
:04000005080000ED02
:00000001FF
