:020000040800F2
:100000006807002089010008191900089D170008D9
:10001000151900088F020008EB1F000800000000FF
:100020000000000000000000000000007D1E00082D
:1000300093020008000000000D1C00087F1E00084D
:10004000A3010008A3010008A3010008A301000800
:10005000A3010008A3010008A3010008A3010008F0
:10006000A3010008A3010008A3010008A3010008E0
:10007000A3010008A3010008A3010008A3010008D0
:10008000A3010008A3010008A3010008A3010008C0
:10009000A3010008A3010008A3010008A3010008B0
:1000A000A3010008A3010008A3010008A3010008A0
:1000B000F11E0008A3010008A3010008A301000825
:1000C000A3010008A3010008A3010008591D0008AE
:1000D000A3010008A3010008A3010008A301000870
:1000E000A3010008A3010008A301000800F002F822
:1000F00000F03AF80AA090E8000C82448344AAF188
:100100000107DA4501D100F02FF8AFF2090EBAE885
:100110000F0013F0010F18BFFB1A43F0010318473B
:10012000F41F000014200000103A24BF78C878C1E2
:10013000FAD8520724BF30C830C144BF04680C60ED
:10014000704700000023002400250026103A28BF35
:1001500078C1FBD8520728BF30C148BF0B60704739
:100160001FB51FBD10B510BD00F058F81146FFF7C0
:10017000F7FF01F06BFF00F076F803B4FFF7F2FF32
:1001800003BC00F07DF8000009488047094800479B
:10019000FEE7FEE7FEE7FEE7FEE7FEE7FEE7FEE737
:1001A000FEE7FEE704480549054A064B7047000094
:1001B000ED1E0008ED00000868010020680700201F
:1001C00068030020680300204FF0000200B51346CA
:1001D00094469646203922BFA0E80C50A0E80C5067
:1001E000B1F12001BFF4F7AF090728BFA0E80C5018
:1001F00048BF0CC05DF804EB890028BF40F8042B11
:1002000008BF704748BF20F8022B11F0804F18BF7D
:1002100000F8012B7047704770477047754600F033
:100220002BF8AE4605006946534620F00700854688
:1002300018B020B5FFF7B6FFBDE820404FF000062C
:100240004FF000074FF000084FF0000B21F00701BE
:10025000AC46ACE8C009ACE8C009ACE8C009ACE801
:10026000C0098D46704710B50446AFF300802046A4
:10027000BDE81040FFF781BF00487047080100202B
:1002800001491820ABBEFEE726000200704700BF00
:10029000FEE7704772B600BFFEE7000070B5044687
:1002A000002594F82100022803D00420A063012532
:1002B00048E02068006820F00E002168086020688F
:1002C000006820F00100216808601F49206888420A
:1002D00001D1012026E01C4914312068884201D157
:1002E00010201FE0184928312068884201D180156C
:1002F00018E015493C312068884201D1801411E092
:10030000114950312068884202D14FF4803009E011
:100310000D4964312068884202D14FF4801001E019
:100320004FF08070084908394860012084F82100A6
:1003300000BF002084F8200000BF606B10B1204691
:10034000616B8847284670BD0800024070B50446BE
:1003500000F0AEF906462546681C10B10448007846
:10036000054400BF00F0A4F9801BA842FAD370BD79
:100370000C0000202DE9F8470346002294466EE168
:100380004FF0010808FA02F4D1F8008008EA0400EE
:10039000A0427DD1DFF8DCA2D1F80480A8EB0A09E5
:1003A000D0453AD014DCB8F1030F50D009DCB8F1D5
:1003B000000F31D0B8F1010F1CD0B8F1020F49D1B4
:1003C00020E0B8F1110F18D0B8F1120F42D11EE0A1
:1003D000B9F5881F25D006DCB9F5803F20D0B9F5E6
:1003E000801F37D11AE0B9F5001F18D0B9F5041FE6
:1003F00030D117E0D1F80CC02DE0D1F80C8008F115
:10040000040C28E0D1F80C8008F1080C23E0D1F8A6
:100410000C8008F10C0C1EE000BF00BF00BF00BF45
:1004200000BF00BFD1F80880B8F1000F02D14FF033
:10043000040C0BE0D1F80880B8F1010F03D14FF0A4
:10044000080C1C6102E04FF0080C5C6103E04FF007
:10045000000C00E000BF00BFFF2801D8984601E073
:1004600003F104084646FF2802D84FEA820803E059
:10047000A2F108084FEA88084746D6F800804FF0F6
:100480000F0909FA07F928EA09080CFA07F900E048
:1004900088E048EA0908C6F80080D1F8048008F02E
:1004A0008058B8F1805F7DD100BFDFF8CC81D8F8EB
:1004B000188048F00108DFF8C091C9F81880C846D4
:1004C000D8F8188008F00108CDF8008000BF00BF00
:1004D0004FEAB9384FEA920958F829504FEA827822
:1004E0004FEA18794FF00F0808FA09F825EA0805CD
:1004F000DFF88881434502D14FF0000816E0DFF8AD
:100500008081434502D14FF001080FE0DFF874818C
:10051000434502D14FF0020808E0DFF86C81434503
:1005200002D14FF0030801E04FF004084FEA82794E
:100530004FEA197908FA09F848EA0505DFF84C810D
:100540004FEA920948F82950D1F8048008F480183D
:10055000B8F5801F0AD1DFF83881D8F8008048EA62
:100560000008DFF82C91C9F8008009E0DFF820814D
:10057000D8F8008028EA0008DFF81491C9F8008054
:10058000D1F8048008F40018B8F5001F10D1DFF886
:10059000008108F10408D8F8008048EA0008DFF874
:1005A000F09000E05AE009F10409C9F800800DE07C
:1005B000DFF8DC8008F10408D8F8008028EA000899
:1005C000DFF8CC9009F10409C9F80080D1F8048063
:1005D00008F40038B8F5003F0ED1DFF8B480A8F178
:1005E0000408D8F8008048EA0008DFF8A490A9F1D0
:1005F0000409C9F800800DE0DFF89480A8F1040830
:10060000D8F8008028EA0008DFF88490A9F10409EE
:10061000C9F80080D1F8048008F48038B8F5803F2C
:100620000ED1DFF86C80A8F10808D8F8008048EAFD
:100630000008DFF85C90A9F10809C9F800800DE016
:10064000DFF84C80A8F10808D8F8008028EA0008F4
:10065000DFF83C90A9F10809C9F80080521CD1F8D4
:10066000008028FA02F8B8F1000F7FF489AEBDE8E7
:10067000F88700000000111000100240000801403F
:10068000000C01400010014000140140080001402E
:1006900008040140024693680B400BB1012000E0C2
:1006A000002070470AB1016101E00B04036170474B
:1006B00001480068704700000400002003480068FB
:1006C0000349097808440149086070470400002084
:1006D0000C00002010B50848006840F010000649E2
:1006E0000860032000F0A8F80F2000F007F800F0E1
:1006F0002BF8002010BD00000020024070B5044619
:100700000E4800784FF47A71B1FBF0F00C4909689B
:10071000B1FBF0F5284600F039FE08B1012070BDAC
:10072000102C07D200222146501E00F047F8054841
:10073000046001E00120F2E70020F0E70C00002057
:10074000100000200800002008B500BF1148806993
:1007500040F001000F4988610846806900F00100FF
:10076000009000BF00BF00BF0846C06940F0805045
:10077000C8610846C06900F08050009000BF00BF0B
:1007800000BF0549486820F0E06040F00070486014
:1007900000BF08BD001002400000014001460846AD
:1007A000002809DB00F01F0301229A4043099B0047
:1007B00003F1E023C3F8002100BF70472DE9F05F8B
:1007C00080460D461646002701F012FC07463946C2
:1007D0002A46334601F00700C0F1070ABAF1040FB8
:1007E00002D94FF0040A01E0C0F1070AD14600F136
:1007F000040ABAF1070F02D24FF0000A01E0A0F19B
:10080000030AD4464FF0010A0AFA09FAAAF1010ACA
:100810000AEA020A0AFA0CFA4FF0010B0BFA0CFB77
:10082000ABF1010B0BEA030B4AEA0B0421464046ED
:1008300001F0E6FBBDE8F09F00BF00F00702064BA9
:1008400019684FF6FF031940044B0B4343EA02219A
:10085000014B196000BF70470CED00E00000FA0585
:1008600070B504460D460CB9012070BD5A480068A9
:1008700000F00700A8420ED25748006820F0070099
:100880002843554908600846006800F00700A84260
:1008900001D00120E9E7207800F0020002281DD1F4
:1008A000207800F00400042805D14C48406840F44A
:1008B000E0604A494860207800F00800082805D127
:1008C0004648406840F460504449486043484068A6
:1008D00020F0F000A168084340494860207800F00B
:1008E000010078B36068012806D13C48006800F434
:1008F000003090B90120B8E76068022806D1374877
:10090000006800F0007040B90120AEE7334800688D
:1009100000F0020008B90120A7E73048406820F045
:100920000300616808432D494860FFF7C1FE064691
:1009300009E0FFF7BDFE801B41F28831884202D9F1
:10094000032092E707E02548406800F00C0061684A
:10095000B0EB810FEDD12048006800F00700A842FD
:100960000ED91D48006820F0070028431A49086086
:100970000846006800F00700A84201D0012074E793
:10098000207800F00400042807D11448406820F4BF
:10099000E060E168084311494860207800F00800F1
:1009A000082808D10D48406820F46050216940EAC9
:1009B000C1000A49486000F019F808494968C1F3C4
:1009C0000311074A515CC8400649086006480068A0
:1009D000FFF794FE002048E700200240001002408C
:1009E000DE200008100000200800002070B5002163
:1009F0000022002400230020134D696801F00C053B
:100A0000F5B1042D02D0082D19D101E00F4819E0ED
:100A10000F4DC1F38346AB5D01F4803555B10A4DEE
:100A20006D68C5F340450B4E725D084D5D43B5FBE7
:100A3000F2F402E0084D03FB05F4204602E000BF9B
:100A4000024800BF00BF70BD0010024000127A00D3
:100A5000CC200008DC20000800093D00F8B5044661
:100A60000CB90120F8BD207800F00100002878D0F2
:100A7000F848406800F00C0004280CD0F5484068A5
:100A800000F00C00082811D1F248406800F48030D2
:100A9000B0F5803F0AD1EF48006800F4003000282C
:100AA0005FD0606800285CD10120DBE700BF606890
:100AB000B0F5803F06D1E748006840F48030E54952
:100AC000086028E0606858B9E248006820F4803087
:100AD000E04908600846006820F4802008601AE0B9
:100AE0006068B0F5A02F0BD1DA48006840F4802090
:100AF000D84908600846006840F4803008600AE081
:100B0000D448006820F48030D24908600846006864
:100B100020F48020086000BF606888B1FFF7C8FD3E
:100B2000054606E0FFF7C4FD401B642801D90320F9
:100B300098E7C848006800F400300028F2D010E0C0
:100B4000FFF7B6FD054606E0FFF7B2FD401B64283F
:100B500001D9032086E7BF48006800F40030002870
:100B6000F2D1207800F00200022857D1B94840683D
:100B700000F00C0050B1B748406800F00C000828A5
:100B800018D1B448406800F4803098B9B148006882
:100B900000F0020020B12069012801D0012061E7A6
:100BA000AC48006820F0F800616940EAC100A9493A
:100BB000086033E02069E8B10120A7490860FFF729
:100BC00077FD054606E0FFF773FD401B022801D9BB
:100BD000032047E79F48006800F002000028F2D099
:100BE0009C48006820F0F800616940EAC10099491A
:100BF000086013E0002098490860FFF759FD05469A
:100C000006E0FFF755FD401B022801D9032029E724
:100C10009048006800F002000028F2D1207800F02F
:100C2000080008282DD1A069B8B101208B490860BF
:100C3000FFF73EFD054606E0FFF73AFD401B0228A0
:100C400001D903200EE78348406A00F00200002823
:100C5000F2D0012000F0DCFF13E000207F490860A3
:100C6000FFF726FD054606E0FFF722FD401B0228A0
:100C700001D90320F6E67748406A00F00200002818
:100C8000F2D1207800F00400042873D100277148C5
:100C9000C06900F0805070B900BF6E48C06940F074
:100CA00080506C49C8610846C06900F080500090CF
:100CB00000BF00BF01276A48006800F48070B0B927
:100CC0006748006840F4807065490860FFF7F0FCF1
:100CD000054606E0FFF7ECFC401B642801D9032021
:100CE000C0E65F48006800F480700028F2D000BFC2
:100CF000E068012806D15748006A40F001005549D4
:100D0000086227E0E06858B95248006A20F0010004
:100D1000504908620846006A20F00400086219E0A1
:100D2000E06805280BD14B48006A40F004004949AF
:100D300008620846006A40F0010008620AE045487F
:100D4000006A20F00100434908620846006A20F06A
:100D50000400086200BFE068A0B1FFF7A9FC0546E7
:100D600009E0FFF7A5FC401B41F28831884202D917
:100D7000032077E622E03748006A00F002000028EE
:100D8000EFD012E0FFF794FC054608E0FFF790FC77
:100D9000401B41F28831884201D9032062E62D4888
:100DA000006A00F002000028F0D1012F05D1294887
:100DB000C06920F080502749C86100BFE069C8B30E
:100DC0002448406800F00C00082860D0E069022840
:100DD00048D1002020490866FFF76AFC054606E076
:100DE000FFF766FC401B022801D903203AE61948A8
:100DF000006800F000700028F2D1206AB0F5803F52
:100E000007D11448406820F40030A1680843114914
:100E10004860D4E9080108430E49496821F4741177
:100E200008430C49486001200B490866FFF740FC65
:100E3000054607E03DE0FFF73BFC401B022801D9D7
:100E400003200FE60348006800F000700028F2D08D
:100E50002FE00000001002400000424280044242A5
:100E600000700040002014490866FFF721FC054689
:100E700006E0FFF71DFC401B022801D90320F1E525
:100E80000E48006800F000700028F2D111E0E0691F
:100E9000012800D1E6E50948466806F48031206A59
:100EA000814204D106F47011606A814201D00120B0
:100EB000D8E50020D6E500000000424200100240C4
:100EC00070470000F8B504462068466820688568C9
:100ED000C5F3801048B905F0010030B1C6F38010A9
:100EE00018B12046216C8847F8BDC5F3400030B1E9
:100EF000C6F3C01018B12046616C8847F4E7C5F30B
:100F0000401018B9C5F38010002871D0C6F3401006
:100F100000286DD0C5F38010F0B194F8510003287B
:100F20000ED0606D40F00400606500BF00200090AE
:100F30002068C068009020688068009000BF0BE0C7
:100F400000BF002000902068C06800902068806882
:100F5000009000BF00BFC7E7C5F3401088B1606DC7
:100F600040F00100606500BF0020009020688068AC
:100F700000902068006820F040002168086000BFF1
:100F800000BF606D70B32068406820F0E000216809
:100F90004860012084F8510006F0020010B906F004
:100FA000010000B32068406820F003002168486019
:100FB000E06C50B10F48E16C4863E06CFFF76EF9EC
:100FC00018B1606D40F040006065A06C50B10948F8
:100FD000A16C4863A06CFFF761F918B1606D40F037
:100FE0004000606502E02046FFF76AFF7CE7FFE70C
:100FF00000BF79E7691D000810B504460CB901204F
:1010000010BD606A38B96068B0F5827F00D105E034
:101010000021E16102E00021216161610021A16202
:1010200094F8510028B9002084F85000204600F0C0
:1010300043F8022084F851002068006820F0400046
:1010400021680860A08800F48270218901F40441BD
:101050000843A18901F400610843217C01F00201E9
:101060000843217D01F001010843218B01F4007147
:101070000843217F01F0380108432021095D01F078
:1010800080010843218D01F4005108432168086064
:101090000421A06901EA1040216848602068C06905
:1010A00020F400602168C86100206065012084F898
:1010B00051000020A4E7000010B586B004460020CF
:1010C00002900390049005901D492068884235D114
:1010D00000BF1C48806940F480501A498861084666
:1010E000806900F48050019000BF00BF00BF084637
:1010F000806940F0040088610846806900F00400BF
:10110000019000BF00BFA0200290022003900320A6
:10111000059002A90C48FFF72DF94020029000200D
:101120000390049002A90848FFF724F90022114611
:101130002320FFF743FB2320FFF730FB06B010BD51
:101140000030014000100240000801402DE9FF5F1F
:101150000446884691461D460E9E012002900020BE
:10116000019000BF94F85000012803D1022004B080
:10117000BDE8F09F012084F8500000BFFFF798FA07
:10118000074694F851B060680390AA46BBF1010F7E
:101190000BD00398B0F5827F04D1A06810B9BBF1E1
:1011A000040F02D002200190E9E0B8F1000F03D053
:1011B000B9F1000F00D015B901200190DFE094F8DB
:1011C0005100042802D0052084F8510000206065F9
:1011D000C4F83890E587A587C4F83080E586A586F1
:1011E000206460642068006800F04000402805D05A
:1011F0002068006840F0400021680860E068B0F5B1
:10120000006F4DD1606810B1BAF1010F09D1206BA8
:1012100000882168C860206B801C2063E08E401E1F
:10122000E08636E02068806800F00200022810D1D5
:10123000E08E70B1029801280BD1206B00882168E4
:10124000C860206B801C2063E08E401EE08600207A
:1012500002902068806800F0010068B1E08F58B10A
:101260002068C068A16B0880A06B801CA063E08F21
:10127000401EE08701200290FFF71AFAC01BB0421F
:1012800007D3701C28B103200190012084F851007D
:1012900075E0E08E0028C5D1E08F0028C2D14DE076
:1012A000606810B1BAF1010F09D1206B0078216894
:1012B0000873206B401C2063E08E401EE08637E000
:1012C0002068806800F00200022810D1E08E70B122
:1012D000029801280BD1206B007821680873206BDD
:1012E000401C2063E08E401EE086002002902068B3
:1012F000806800F0010068B1E08F58B12068C068D4
:10130000A16B0870A06B401CA063E08F401EE087BB
:1013100001200290FFF7CCF9C01BB04201D3701C32
:1013200000B92EB903200190012084F8510026E075
:10133000E08E0028C4D1E08F0028C1D13A46314662
:10134000204600F01BFD20B10120019020206065A7
:1013500015E0A06850B900BF002000902068C06868
:10136000009020688068009000BF00BF606D10B1E1
:101370000120019002E0012084F8510000BF00BF6D
:10138000002084F8500000BF0198F0E670B50446D4
:101390002546681EB0F1807F01D301200FE0681E52
:1013A0004FF0E02148610F214FF0FF3000F028FEA0
:1013B00000204FF0E021886107200861002070BD07
:1013C0007047704730B502460B4600BF92F83C00AC
:1013D000012801D1022030BD012082F83C0000BF6D
:1013E000022082F83D00106844681068816824F08B
:1013F00070041868044310684460104D1068A842D7
:101400000BD01068B0F1804F07D00D4D1068A84286
:1014100003D00C4D1068A84205D121F08001586816
:10142000014310688160012082F83D0000BF002068
:1014300082F83C0000BF00BFCDE70000002C014057
:10144000000400400008004010B504460CB901201B
:1014500010BD94F83D0028B9002084F83C002046D7
:1014600000F026F8022084F83D00211D206800F0DD
:1014700047FD012084F8460000BF84F83E000121AA
:101480003F200155402001554120015500BF00BFBC
:10149000012084F842004320015544200155452095
:1014A000015500BF012084F83D000020D0E7000076
:1014B00038B504462068B0F1804F15D100BF0B4805
:1014C000C06940F001000949C8610846C06900F0E0
:1014D0000100009000BF00BF002211461C20FFF752
:1014E0006DF91C20FFF75AF938BD000000100240CA
:1014F0002DE9F04104460D46002700BF94F83C005A
:10150000012802D10220BDE8F081012084F83C00CE
:1015100000BF022084F83D002068866826F0770628
:1015200026F47F46206886602868502833D00CDC7B
:10153000202850D004DC00284BD0102851D149E09D
:10154000302849D040284CD139E060282DD070286F
:1015500007D0B0F5805F03D0B0F5005F41D10DE05A
:1015600041E0D5E902136A68206800F003FD2068B5
:10157000866846F077062068866034E0D5E9021375
:101580006A68206800F0F6FC2068806840F48040BB
:101590002168886027E0EA686968206800F0FEFC3E
:1015A0005021206800F0F1FC1DE0EA6869682068BD
:1015B00000F007FD6021206800F0E7FC13E0EA6816
:1015C0006968206800F0EAFC4021206800F0DDFC3A
:1015D00009E000BF00BF00BF2968206800F0D5FC0B
:1015E00001E0012700BF00BF012084F83D0000BFDB
:1015F000002084F83C0000BF384684E7704710B5EF
:10160000044620680069C0F34000D8B12068C06873
:10161000C0F34000B0B16FF0020021680861012002
:1016200020772068806900F0030018B12046FFF79A
:10163000E5FF05E0204600F0ADF8204600F0ABF8ED
:101640000020207720680069C0F38000D8B12068AE
:10165000C068C0F38000B0B16FF004002168086179
:10166000022020772068806900F4407018B120467D
:10167000FFF7C4FF05E0204600F08CF8204600F09C
:101680008AF80020207720680069C0F3C000D8B134
:101690002068C068C0F3C000B0B16FF008002168D6
:1016A0000861042020772068C06900F0030018B1A9
:1016B0002046FFF7A3FF05E0204600F06BF8204628
:1016C00000F069F80020207720680069C0F300105E
:1016D000D8B12068C068C0F30010B0B16FF010003E
:1016E00021680861082020772068C06900F44070F4
:1016F00018B12046FFF782FF05E0204600F04AF8C7
:10170000204600F048F8002020772068006900F0AB
:10171000010058B12068C06800F0010030B16FF0DE
:10172000010021680861204600F036F82068006951
:10173000C0F3C01058B12068C068C0F3C01030B109
:101740006FF08000216808612046FFF739FE2068AD
:101750000069C0F3801058B12068C068C0F38010E1
:1017600030B16FF0400021680861204600F015F8A4
:1017700020680069C0F3401058B12068C068C0F309
:10178000401030B16FF02000216808612046FFF75B
:1017900018FE10BD704770477047704700BFFEE7E6
:1017A00000B585B00020019002900390049000BF26
:1017B0002948806940F020002749886108468069EF
:1017C00000F02000009000BF00BF00BF0846806905
:1017D00040F0040088610846806900F00400009031
:1017E00000BF00BF00BF0846806940F00800886164
:1017F0000846806900F00800009000BF00BF00228A
:1018000018211648FEF74EFF002201211448FEF76A
:1018100049FF18200190012002900020039002202F
:10182000049001A90D48FEF7A5FD0120019002904A
:10183000002003900220049001A90948FEF79AFDB8
:1018400002200190002002900120039001A9044889
:10185000FEF790FD05B000BD0010024000080140F9
:10186000000C014010B50E480E4908604FF482701C
:10187000486000210B488160C160016141614FF403
:10188000007181612021C161002101624162816298
:101890000A21C162FFF7B0FB08B1FEF7FBFC10BDE7
:1018A000003001402000002000B587B000200390E8
:1018B000049005900690019002904FF080401449EA
:1018C00008604720486000211148816040F2E731FC
:1018D000C160002101618161FFF7B6FD08B1FEF72B
:1018E000D9FC4FF48050039003A90948FFF700FE8C
:1018F00008B1FEF7CFFC00200190029001A9044836
:10190000FFF760FD08B1FEF7C5FC07B000BD0000A1
:101910007800002000BFFEE700BFFEE770B5044678
:101920000D46002605F07005204600F061F80646D9
:10193000002208210A48FEF7B5FE2721D4E900203D
:10194000904745EA0601D4E900209047012208218A
:101950000348FEF7A7FE204600F04AF870BD0000DD
:101960000008014070B504460D462946204600F0A7
:101970005BFB70BD2DE9F04104460D4617469846C5
:10198000002208210C48FEF78DFE2946D4E90020EC
:101990009047002606E0FF21D4E900209047B85583
:1019A000701CC6B24645F6DB012208210248FEF74C
:1019B00079FEBDE8F08100000008014070B50446E2
:1019C0000D46002208210948FEF76CFE2946D4E99D
:1019D00000209047FF21D4E90020904706460122CD
:1019E00008210248FEF75EFE304670BD0008014047
:1019F00070B50446002208210748FEF753FE072170
:101A0000D4E9002090470546012208210248FEF74C
:101A100049FE284670BD0000000801402DE9F04154
:101A200004460D4600260027B0460022082126481D
:101A3000FEF738FEE221D4E9002090470122082178
:101A40002148FEF72FFE10E06420FEF77FFC4046A1
:101A5000411C01F0FF081E2807D1204600F0ECF8D9
:101A60000121204600F054F909E002211748FEF751
:101A700011FE012800D100E000200028E4D100BFC1
:101A800007212046FFF79AFF0646324607212046E7
:101A900000F070F806F0400098B160212046FFF792
:101AA0008DFF07463B4605F1210261212046FFF7E5
:101AB00061FFFF22E221204600F05CF83846BDE8D5
:101AC000F0810020FBE7000000080140000C01400D
:101AD0002DE9F04106460C4617461D46052D01DD51
:101AE000052000E028460546052C01DD052000E024
:101AF0002046044604F10A00C1B22B463A4630465D
:101B000000F014F8BDE8F08170B506460D461446A5
:101B1000052C01DD052000E02046044623462A4628
:101B20001021304600F002F870BD00002DE9F041B0
:101B300004460E4617469846002208210C48FEF738
:101B4000B1FD46F02001D4E900209047002505E0D2
:101B5000795DD4E900209047681CC5B24545F7DBA4
:101B6000012208210248FEF79DFDBDE8F08100003A
:101B70000008014070B504460D46164600220821B3
:101B80000848FEF78FFD45F02001D4E9002090477A
:101B90003146D4E900209047012208210148FEF790
:101BA00081FD70BD000801407FB5054615A103C940
:101BB000CDE9020100200090019020E0052302AA57
:101BC00010212846FFF7B2FF05236A461021284658
:101BD000FFF7D0FE002408E002A8005D1DF8041005
:101BE000884200D003E0601CC4B2052CF4DB00BFC7
:101BF000052C00D104E04FF4FA60FEF7A7FBDDE707
:101C000000BF7FBDA5A5A5A5A500000070470000E9
:101C100008B508490968C9084FF47A72B1FBF2F1B6
:101C20004143009100BF00BF00994A1E0092002965
:101C3000F9D108BD100000201CB5044629A103C934
:101C4000CDE90001002201212848FEF72BFD70217B
:101C50002046FFF763FE01221C212046FFF78AFF82
:101C600007221D212046FFF785FF1C212046FFF794
:101C7000A5FE1D212046FFF7A1FE4A220021204695
:101C8000FFF778FF012211462046FFF773FF01227C
:101C900002212046FFF76EFF032211462046FFF780
:101CA00069FFFF2204212046FFF764FF002205217F
:101CB0002046FFF75FFF262206212046FFF75AFF46
:101CC000052269462046FFF71FFF05236A460021CB
:101CD0002046FFF7FDFE012211460448FEF7E2FC14
:101CE0001CBD00003443101001000000000C014036
:101CF0000348044948640449486004480860704740
:101D000020000020C00000201800002065190008F5
:101D100070B505460C46002600212846FFF74EFE0A
:101D20000646002201210B48FEF7BCFC2CB90E220E
:101D300000212846FFF71EFF06E0012C04D10F22E8
:101D400000212846FFF716FF012211460148FEF741
:101D5000A9FC70BD000C014010B50248FFF7B2F8B5
:101D600010BD00002000002070B505466C6A002000
:101D7000E087E0862046FFF7A3F870BDF8B504467B
:101D80000D4616462B46002280212046009600F084
:101D900009F828B1606D40F0200060650320F8BDAF
:101DA0000020FCE72DE9F84F04460D4690461E46FC
:101DB000DDF82890FEF77CFCA0EB0900371AFEF74F
:101DC00077FC82462C480068C0F3CB307843009003
:101DD00045E0701C002842D0FEF76AFCA0EB0A0028
:101DE000B84200D2A7BB2068406820F0E00021681C
:101DF00048606068B0F5827F0DD1A068B0F5004FF3
:101E000003D0A068B0F5806F05D12068006820F08D
:101E1000400021680860A06AB0F5005F0DD100BFE6
:101E20002068006820F4005021680860206800687D
:101E300040F400502168086000BF012084F8510080
:101E400000BF002084F8500000BF0320BDE8F88FD9
:101E5000FFE7009800B900270098401E0090206816
:101E600080682840A84201D1012000E000204045C0
:101E7000AFD10020EAE7000010000020704710B545
:101E8000FEF71CFC10BD00B58FB0282105A8FEF799
:101E90009BF914216846FEF797F90120059000048C
:101EA0000690002007900120099002200C90C103A9
:101EB0000D914FF4E0110E9105A8FEF7CFFD08B18A
:101EC000FEF7E8F90F200090022001900020029018
:101ED0004FF4806003900020049002216846FEF7D2
:101EE000BFFC08B1FEF7D6F90FB000BD7047000087
:101EF00010B50248FFF783FB10BD000078000020FA
:101F000010B50268184B984208D0B0F1804F05D048
:101F1000164B984202D0164B984203D122F0700221
:101F20004B681A43104B984208D0B0F1804F05D04F
:101F30000E4B984202D00E4B984203D122F44072CD
:101F4000CB681A4322F080034C6943EA0402026022
:101F50008B68C3620B688362034B984201D10B69A3
:101F600003630123436110BD002C014000040040C5
:101F70000008004030B50C46816821F47F4142EAF8
:101F8000032525432943816030BD0A46816821F03D
:101F9000700142F0070319438160704730B50B466A
:101FA0001446026A056A25F001050562816921F07F
:101FB000F00141EA041122F00A021A43816102622F
:101FC00030BD30B50B461446026A056A25F010058F
:101FD0000562816921F4704141EA043122F0A002D6
:101FE00042EA03128161026230BD00BFFEE70000D9
:101FF00002480068C0F30220704700000CED00E0CA
:1020000010B5002804DB0A07130E054A135406E036
:102010000A07140E034A00F00F031B1FD45410BD0F
:1020200000E400E018ED00E013B582B004460020A3
:1020300001904FF6FF70012301AA03A900902046EA
:10204000FFF784F89DF8040004B010BDFEF742FBD2
:10205000FFF719FFFFF7A4FBFFF704FCFFF724FCD1
:10206000002004E0002215490A54411CC8B220286F
:10207000F8DB20211148213880F84110FFF738FEA5
:102080000F48FFF7D9FD01210D48FFF741FE13E08E
:102090000B48FFF789FD094921390948FFF7BEFCC4
:1020A00007210748FFF78AFC0649087017210448F2
:1020B000FFF784FC04490870EAE70000E100002013
:1020C0001800002000000020010000200203040589
:1020D000060708090A0B0C0D0E0F10100102000074
:1020E00000000000000001020304060708090000C8
:1020F0000000010203040000524632344C3031200B
:102100006973206E6F742066696E6420212E2E2EF6
:102110000000000034210008000000202000000022
:102120002801000854210008200000204807000072
:102130004401000800000000000000001000000042
:10214000010000000024F400F82000080000000056
:04215000000000008B
:04000005080000ED02
:00000001FF
