:020000040800F2
:10000000B00B002001010008253300081B28000860
:1000100021330008D50400086340000800000000F8
:100020000000000000000000000000005938000837
:100030001505000800000000C53500086D3B0008EC
:100040001B0100081B0100081B0100081B01000820
:100050001B010008F13500081B0100081B01000806
:100060001B0100081B0100081B010008D90400083F
:100070001B0100081B0100081B0100081B010008F0
:100080001B0100081B0100081B0100081B010008E0
:100090001B0100081B0100081B0100081B010008D0
:1000A0001D3C00082D3C00081B0100081B01000836
:1000B0003D3C00081B0100081B0100081B01000853
:1000C0001B0100081B0100081B0100082537000860
:1000D000353700081B0100081B0100081B01000840
:1000E0001B0100081B0100081B010008DFF80CD0F1
:1000F00000F0C8F800480047E5400008B00B0020B9
:100100000648804706480047FEE7FEE7FEE7FEE7B1
:10011000FEE7FEE7FEE7FEE7FEE7FEE7F93B000845
:10012000ED00000840EA01039B0703D009E008C97D
:10013000121F08C0042AFAD203E011F8013B00F8AC
:10014000013B521EF9D27047D2B201E000F8012BF8
:10015000491EFBD270470022F6E710B513460A4647
:1001600004461946FFF7F0FF204610BD80EA010261
:1001700010B502F00043400022D04A001FD0010E0B
:1001800001EB1261C0F35600C2F3560240F40000C6
:1001900042F40002A0FB022000047F39140400D0C6
:1001A000401C50EA124001D44000491EC2B20C0665
:1001B00004EBD010401C4008802A02D003E000204D
:1001C00010BD20F00100002900DA0020184310BD06
:1001D000C10F80EAE0700844CA079623002100F0AE
:1001E00022B896230022114600F01DB820F00040EE
:1001F000C10DC0F3160040F400007F2901DA002091
:100200007047962903DCC1F19601C84070479639C2
:10021000884070470029A8BF7047401C490008BFAC
:1002200020F00100704710B4B0FA80FC00FA0CF026
:1002300050EA010404BF10BC704749B1CCF120045E
:1002400021FA04F411FA0CF118BF012121430843EB
:10025000A3EB0C01CB1D4FEA00614FEA102042BF17
:10026000002010BC704700EBC35010440029A4BF0D
:1002700010BC7047401C490008BF20F0010010BCB2
:1002800070470000064C074D06E0E06840F00103AF
:1002900094E8070098471034AC42F6D3FFF72AFFE2
:1002A000607B0008807B0008002023E0254931F8AE
:1002B0003010254A12881144234A1180214901EB4C
:1002C000C0014988214A12881144204A11801D49E1
:1002D00001EBC00189881E4A128811441C4A118012
:1002E000184901EBC001C9881A4A12881144194AF9
:1002F0001180401C0A28D9DB134800880A2190FB92
:10030000F1F015490880114800880A2190FBF1F0AE
:10031000124908800E4800880A2190FBF1F010492C
:1003200008800C4800880A2190FBF1F00D490880F4
:1003300000200549088005490880054908800549CD
:1003400008807047040500200400002006000020FB
:10035000080000200A0000200E00002010000020ED
:10036000120000201400002070B50446002520680B
:10037000806800F0010018B32068806820F0010058
:100380002168886000F090FE054613E000F08CFEC6
:10039000401B02280ED92068806800F0010048B197
:1003A000A06A40F01000A062E06A40F00100E06244
:1003B000012070BD2068806800F001000028E5D1B0
:1003C0000020F6E770B505466C6AA06A00F05000A0
:1003D000E0B9A06A40F40070A0622068806800F470
:1003E0006020B0F5602F0DD1207B58B9A06A20F4B1
:1003F0008070A062A06A00F4805018B9A06A40F032
:100400000100A062204600F039F903E0206A016B88
:100410002846884770BD70B505466C6AA06A40F0F2
:100420004000A062E06A40F00400E062204600F074
:1004300027F970BD70B50446656A284600F01FF9BB
:1004400070BD000038B504460025002000902068EB
:10045000806800F0010078BB2068806840F00100EF
:1004600021688860194800681949B0FBF1F00090D4
:1004700002E00098401E009000980028F9D100F09A
:1004800013FE054619E000F00FFE401B022814D9A8
:100490002068806800F0010078B9A06A40F0100080
:1004A000A062E06A40F00100E06200BF002084F832
:1004B000240000BF012038BD05E02068806800F0FE
:1004C00001000028DFD00020F5E700002400002014
:1004D00040420F0000BFFEE710B5024800F0E2FA0C
:1004E00010BD00008405002030B590F84050012474
:1004F000AC40C56B6C60046863604468102C04D128
:100500000468A2600468E16003E00468A160046814
:10051000E26030BD704772B600BFFEE738B50246F4
:1005200000230020009000BF92F82400012801D190
:10053000022038BD012082F8240000BF4868072847
:1005400012D21068406B0C79641E04EB84051F24E2
:10055000AC40A0430D796D1E05EB85050C68AC40E1
:1005600020431468606327E048680D2812D21068A1
:10057000006B0C79E41F04EB84051F24AC40A043FE
:100580000D79ED1F05EB85050C68AC402043146820
:10059000206311E01068C06A0C790D3C04EB8405FF
:1005A0001F24AC40A0430D790D3D05EB85050C687B
:1005B000AC4020431468E06208680A2812D310682F
:1005C000C0680C780A3C04EB44050724AC40A04307
:1005D0000D780A3D05EB45058C68AC402043146856
:1005E000E0600FE0106800690C7804EB4405072414
:1005F000AC40A0430D7805EB45058C68AC4020432A
:10060000146820610868102802D00868112827D1D2
:10061000174C1068A0421ED11068806800F40000DA
:10062000F0B91068806840F400001468A0600868A1
:10063000102815D10F4800680F4CB0FBF4F000EB08
:1006400080004000009002E00098401E009000985A
:100650000028F9D104E0906A40F020009062012364
:1006600000BF002082F8240000BF184661E70000A8
:10067000002401402400002040420F0070477047D2
:10068000704700002DE9F0410446002700250026B0
:10069000A84614B90120BDE8F081A06810B1207D02
:1006A00000B100BFA06A30B90020E06284F82400E5
:1006B000204600F089F82046FFF756FE0746A06A5C
:1006C00000F01000002873D1002F71D1A06A20F42F
:1006D000885040F00200A062E16960680843217B15
:1006E00040EA41000643A068B0F5807F02D0A068D0
:1006F000012802D14FF4807000E000200543207DE6
:10070000012811D1207B38B9A069401E4FF4006147
:1007100041EA4030054307E0A06A40F02000A062B3
:10072000E06A40F00100E0622068406820F469401F
:100730002843216848602068806821490840304388
:1007400021688860A068B0F5807F02D0A068012889
:1007500002D14FF4807000E00020B0F5807F03D11B
:10076000208A401E4FEA00582068C06A20F47000BA
:1007700040EA08002168C862206880681149084082
:10078000B04208D10020E062A06A20F0020040F0F0
:100790000100A06211E0A06A20F0020040F0100009
:1007A000A062E06A40F00100E062012705E0FFE797
:1007B000A06A40F01000A062012738466BE70000F5
:1007C000FDF7E1FFFE0E1FFF10B586B004460020C6
:1007D00002900390049005902149206888423DD101
:1007E00000BF2048806940F400701E4988610846B7
:1007F000806900F40070019000BF00BF00BF084690
:10080000806940F0040088610846806900F00400B7
:10081000019000BF00BF272002900320039002A98F
:10082000114800F0A3FA11481149086000204860FF
:1008300000210F4881608021C16049000161890069
:10084000416100218161C16100F0FAF908B1FFF74F
:1008500062FE00BF06482062446200BF06B010BDC1
:10086000002401400010024000080140080002403E
:10087000840500202DE9F04104460D461646002768
:1008800057492068884203D056492068884205D1DC
:100890005348001D006800F4702000E0002000288C
:1008A0007ED100BF94F82400012802D10220BDE8C7
:1008B000F081012084F8240000BF2046FFF7C2FD2C
:1008C0000746002F6DD1A06A40F60161884340F4CD
:1008D0008070A06243492068884209D14048001DC9
:1008E000006800F4702008B9012002E0002000E058
:1008F000012078B1A06A20F48010A06220684068CE
:1009000000F4806000B3A06A20F4005040F48050EE
:10091000A06219E0A06A40F48010A062304920680B
:10092000884203D02F492068884205D12C48001DF9
:10093000006800F4806000E0002028B1A06A20F484
:10094000005040F48050A062A06A00F4805020B1B2
:10095000E06A20F00600E06201E00020E06200BFF3
:10096000002084F8240000BF1F48216A88621F48C5
:10097000216AC8621E48216A08636FF0020021687C
:1009800008602068806840F4807021688860226870
:1009900002F14C0133462A46206A00F085F901E055
:1009A0001AE014E02068806800F46020B0F5602F41
:1009B00006D12068806840F4A000216888600CE0BF
:1009C0002068806840F480102168886005E000BFDE
:1009D000002084F8240000E00127384667E7000083
:1009E0000024014000280140C50300083504000828
:1009F0001704000870B50446002594F82100022869
:100A000003D00420A063012548E02068006820F09E
:100A10000E00216808602068006820F0010021684D
:100A200008601F492068884201D1012026E01C4946
:100A300014312068884201D110201FE01849283164
:100A40002068884201D1801518E015493C312068A2
:100A5000884201D1801411E0114950312068884248
:100A600002D14FF4803009E00D496431206888429A
:100A700002D14FF4801001E04FF08070084908392E
:100A80004860012084F8210000BF002084F8200085
:100A900000BF606B10B12046616B8847284670BD6F
:100AA0000800024070B50446E06B056820680668DF
:100AB00094F84010042088402840002846D006F0D2
:100AC0000400002842D02068006800F0200028B907
:100AD0002068006820F004002168086057492068F9
:100AE000884201D1042027E054491431206888420B
:100AF00001D1402020E0514928312068884201D1AD
:100B0000001519E04D493C312068884202D14FF46C
:100B1000804011E0494950312068884202D14FF4A9
:100B2000802009E0454964312068884202D14FF4B1
:100B3000800001E04FF08060404908394860E06A79
:100B400000287AD02046E16A884776E094F8401081
:100B5000022088402840A0B306F0020088B3206835
:100B6000006800F0200040B92068006820F00A000A
:100B700021680860012084F82100304920688842FB
:100B800001D1022028E02D4914312068884201D18A
:100B9000202021E0294928312068884201D14015D0
:100BA0001AE026493C312068884202D14FF40050B7
:100BB00012E0224950312068884203D14FF40030BE
:100BC0000AE017E01D4964312068884202D14FF4E1
:100BD000001001E04FF0007018490839486000BF6C
:100BE000002084F8200000BFA06A30B32046A16A2C
:100BF000884722E094F84010082088402840E0B15F
:100C000006F00800C8B12068006820F00E002168D6
:100C1000086094F8401001208840E16B4860012092
:100C2000A06384F8210000BF002084F8200000BFEA
:100C3000206B10B12046216B884770BD0800024030
:100C40000146002209B901207047164B0868C01AF6
:100C50001423B0FBF3F08000086412480838C8631E
:100C6000022081F821000868026843F6F070824390
:100C7000D1E901031843CB6818430B6918434B694A
:100C800018438B691843CB69184302430868026014
:100C900000208863012081F82100002081F82000D5
:100CA00000BFD1E7080002402DE9F04104460D469F
:100CB00016461F464FF0000800BF94F82000012898
:100CC00002D10220BDE8F081012084F8200000BF9D
:100CD00094F8210001282CD1022084F82100002062
:100CE000A0632068006820F00100216808603B468E
:100CF000324629462046FFF7F7FBE06A30B120680C
:100D0000006840F00E00216808600BE02068006871
:100D100020F00400216808602068006840F00A00A4
:100D2000216808602068006840F0010021680860C0
:100D300006E000BF002084F8200000BF4FF002084A
:100D40004046BFE770B5044600F0AEF906462546BA
:100D5000681C10B104480078054400BF00F0A4F9F5
:100D6000801BA842FAD370BD200000202DE9F8476F
:100D70000346002294466EE14FF0010808FA02F49F
:100D8000D1F8008008EA0400A0427DD1DFF8DCA29F
:100D9000D1F80480A8EB0A09D0453AD014DCB8F1A8
:100DA000030F50D009DCB8F1000F31D0B8F1010FBA
:100DB0001CD0B8F1020F49D120E0B8F1110F18D0C2
:100DC000B8F1120F42D11EE0B9F5881F25D006DC1C
:100DD000B9F5803F20D0B9F5801F37D11AE0B9F5B9
:100DE000001F18D0B9F5041F30D117E0D1F80CC09E
:100DF0002DE0D1F80C8008F1040C28E0D1F80C802B
:100E000008F1080C23E0D1F80C8008F10C0C1EE06E
:100E100000BF00BF00BF00BF00BF00BFD1F8088007
:100E2000B8F1000F02D14FF0040C0BE0D1F80880AC
:100E3000B8F1010F03D14FF0080C1C6102E04FF034
:100E4000080C5C6103E04FF0000C00E000BF00BF45
:100E5000FF2801D8984601E003F104084646FF2820
:100E600002D84FEA820803E0A2F108084FEA880896
:100E70004746D6F800804FF00F0909FA07F928EA2B
:100E800009080CFA07F900E088E048EA0908C6F802
:100E90000080D1F8048008F08058B8F1805F7DD1DF
:100EA00000BFDFF8CC81D8F8188048F00108DFF8DF
:100EB000C091C9F81880C846D8F8188008F0010811
:100EC000CDF8008000BF00BF4FEAB9384FEA920961
:100ED00058F829504FEA82784FEA18794FF00F08F6
:100EE00008FA09F825EA0805DFF88881434502D1A8
:100EF0004FF0000816E0DFF88081434502D14FF043
:100F000001080FE0DFF87481434502D14FF0020879
:100F100008E0DFF86C81434502D14FF0030801E09F
:100F20004FF004084FEA82794FEA197908FA09F874
:100F300048EA0505DFF84C814FEA920948F8295044
:100F4000D1F8048008F48018B8F5801F0AD1DFF8C2
:100F50003881D8F8008048EA0008DFF82C91C9F8F9
:100F6000008009E0DFF82081D8F8008028EA000836
:100F7000DFF81491C9F80080D1F8048008F4001853
:100F8000B8F5001F10D1DFF8008108F10408D8F887
:100F9000008048EA0008DFF8F09000E05AE009F12C
:100FA0000409C9F800800DE0DFF8DC8008F10408CE
:100FB000D8F8008028EA0008DFF8CC9009F104098D
:100FC000C9F80080D1F8048008F40038B8F5003F73
:100FD0000ED1DFF8B480A8F10408D8F8008048EA00
:100FE0000008DFF8A490A9F10409C9F800800DE019
:100FF000DFF89480A8F10408D8F8008028EA0008F7
:10100000DFF88490A9F10409C9F80080D1F80480C0
:1010100008F48038B8F5803F0ED1DFF86C80A8F175
:101020000808D8F8008048EA0008DFF85C90A9F1C9
:101030000809C9F800800DE0DFF84C80A8F1080825
:10104000D8F8008028EA0008DFF83C90A9F10809E8
:10105000C9F80080521CD1F8008028FA02F8B8F1D3
:10106000000F7FF489AEBDE8F88700000000111082
:101070000010024000080140000C01400010014037
:101080000014014008000140080401400246936832
:101090000B400BB1012000E0002070470AB1016154
:1010A00001E00B04036170470148006870470000CD
:1010B00018000020034800680349097808440149E2
:1010C00008607047180000202000002010B5084874
:1010D000006840F0100006490860032000F0B0F8F6
:1010E0000F2000F007F800F02BF8002010BD0000E2
:1010F0000020024070B504460E4800784FF47A7123
:10110000B1FBF0F00C490968B1FBF0F5284601F09D
:1011100027F808B1012070BD102C07D2002221460B
:10112000501E00F04FF80548046001E00120F2E78E
:101130000020F0E720000020240000201C000020F8
:1011400008B500BF1548806940F001001349886167
:101150000846806900F00100009000BF00BF00BF9A
:101160000846C06940F08050C8610846C06900F078
:101170008050009000BF00BF00221146052000F003
:1011800021F8052000F00EF800BF0549486820F05E
:10119000E06040F00070486000BF08BD00100240F1
:1011A0000000014001460846002809DB00F01F034B
:1011B00001229A4043099B0003F1E023C3F8002178
:1011C00000BF70472DE9F05F80460D4616460027A8
:1011D00002F04AFF074639462A46334601F0070027
:1011E000C0F1070ABAF1040F02D94FF0040A01E076
:1011F000C0F1070AD14600F1040ABAF1070F02D282
:101200004FF0000A01E0A0F1030AD4464FF0010AB2
:101210000AFA09FAAAF1010A0AEA020A0AFA0CFA17
:101220004FF0010B0BFA0CFBABF1010B0BEA030BBC
:101230004AEA0B042146404602F01EFFBDE8F09F3B
:1012400000BF00F00702064B19684FF6FF03194074
:10125000044B0B4343EA0221014B196000BF704766
:101260000CED00E00000FA05F8B504460026002564
:10127000207800F0010000286BD000274348C069A7
:1012800000F0805070B900BF4048C06940F0805005
:101290003E49C8610846C06900F08050009000BF18
:1012A00000BF01273A48006800F48070B0B93848A0
:1012B000006840F4807036490860FFF7F5FE064686
:1012C00006E0FFF7F1FE801B642801D90320F8BD7A
:1012D0002F48006800F480700028F2D02B48006A84
:1012E00000F440752DB3A08800F44070A84220D0CF
:1012F0002648006A20F44075012026490860002035
:1013000008602248056205F0010090B1FFF7CCFEAD
:10131000064608E0FFF7C8FE801B41F2883188428C
:1013200001D90320D3E71948006A00F00200002821
:10133000F0D01648006A20F44070616808431349F1
:101340000862012F04D10846C06920F08050C861AE
:1013500000BF207800F00200022807D10B48406847
:1013600020F44040A168084308494860207800F014
:101370001000102807D10548406820F48000E1687B
:101380000843024948600020A1E700000010024025
:10139000007000404004424270B504460D460CB94E
:1013A000012070BD5A48006800F00700A8420ED224
:1013B0005748006820F00700284355490860084650
:1013C000006800F00700A84201D00120E9E720787A
:1013D00000F0020002281DD1207800F0040004284B
:1013E00005D14C48406840F4E0604A4948602078A4
:1013F00000F00800082805D14648406840F46050D5
:10140000444948604348406820F0F000A168084320
:1014100040494860207800F0010078B360680128F6
:1014200006D13C48006800F4003090B90120B8E7CC
:101430006068022806D13748006800F0007040B9A3
:101440000120AEE73348006800F0020008B901202F
:10145000A7E73048406820F00300616808432D4941
:101460004860FFF721FE064609E0FFF71DFE801BDE
:1014700041F28831884202D9032092E707E02548EB
:10148000406800F00C006168B0EB810FEDD120489E
:10149000006800F00700A8420ED91D48006820F03F
:1014A000070028431A4908600846006800F0070052
:1014B000A84201D0012074E7207800F0040004283D
:1014C00007D11448406820F4E060E16808431149FE
:1014D0004860207800F00800082808D10D484068CE
:1014E00020F46050216940EAC1000A49486000F0D8
:1014F0003FF808494968C1F30311074A515CC840E5
:101500000649086006480068FFF7F4FD002048E738
:101510000020024000100240104200082400002079
:101520001C000020014800687047000024000020D3
:1015300000B5FFF7F7FF04494968C1F30221034AE8
:10154000515CC84000BD000000100240204200086D
:1015500000B5FFF7E7FF04494968C1F3C221034A18
:10156000515CC84000BD000000100240204200084D
:1015700070B500210022002400230020134D69686B
:1015800001F00C05F5B1042D02D0082D19D101E0B0
:101590000F4819E00F4DC1F38346AB5D01F4803570
:1015A00055B10A4D6D68C5F340450B4E725D084D4F
:1015B0005D43B5FBF2F402E0084D03FB05F4204661
:1015C00002E000BF024800BF00BF70BD0010024033
:1015D00000127A00FE4100080E42000800093D009A
:1015E000F8B504460CB90120F8BD207800F00100E0
:1015F000002878D0F848406800F00C0004280CD08F
:10160000F548406800F00C00082811D1F248406805
:1016100000F48030B0F5803F0AD1EF48006800F454
:10162000003000285FD0606800285CD10120DBE733
:1016300000BF6068B0F5803F06D1E748006840F41D
:101640008030E549086028E0606858B9E2480068E1
:1016500020F48030E04908600846006820F48020CB
:1016600008601AE06068B0F5A02F0BD1DA48006876
:1016700040F48020D84908600846006840F4803073
:1016800008600AE0D448006820F48030D24908603D
:101690000846006820F48020086000BF606888B1B8
:1016A000FFF702FD054606E0FFF7FEFC401B64283D
:1016B00001D9032098E7C848006800F400300028EA
:1016C000F2D010E0FFF7F0FC054606E0FFF7ECFC77
:1016D000401B642801D9032086E7BF48006800F456
:1016E00000300028F2D1207800F00200022857D103
:1016F000B948406800F00C0050B1B748406800F0AD
:101700000C00082818D1B448406800F4803098B91B
:10171000B148006800F0020020B12069012801D022
:10172000012061E7AC48006820F0F800616940EAF8
:10173000C100A949086033E02069E8B10120A74948
:101740000860FFF7B1FC054606E0FFF7ADFC401B63
:10175000022801D9032047E79F48006800F00200F3
:101760000028F2D09C48006820F0F800616940EA47
:10177000C1009949086013E0002098490860FFF70C
:1017800093FC054606E0FFF78FFC401B022801D9B9
:10179000032029E79048006800F002000028F2D1F9
:1017A000207800F0080008282DD1A069B8B10120E8
:1017B0008B490860FFF778FC054606E0FFF774FCEC
:1017C000401B022801D903200EE78348406A00F03D
:1017D00002000028F2D0012001F0F6FE13E0002004
:1017E0007F490860FFF760FC054606E0FFF75CFCF8
:1017F000401B022801D90320F6E67748406A00F032
:1018000002000028F2D1207800F00400042873D1EF
:1018100000277148C06900F0805070B900BF6E4861
:10182000C06940F080506C49C8610846C06900F04A
:101830008050009000BF00BF01276A48006800F494
:101840008070B0B96748006840F4807065490860EE
:10185000FFF72AFC054606E0FFF726FC401B64283C
:1018600001D90320C0E65F48006800F480700028BA
:10187000F2D000BFE068012806D15748006A40F066
:1018800001005549086227E0E06858B95248006AEB
:1018900020F00100504908620846006A20F0040068
:1018A000086219E0E06805280BD14B48006A40F057
:1018B0000400494908620846006A40F001000862D5
:1018C0000AE04548006A20F00100434908620846E2
:1018D000006A20F00400086200BFE068A0B1FFF7D2
:1018E000E3FB054609E0FFF7DFFB401B41F28831CF
:1018F000884202D9032077E622E03748006A00F0E8
:1019000002000028EFD012E0FFF7CEFB054608E00A
:10191000FFF7CAFB401B41F28831884201D90320FE
:1019200062E62D48006A00F002000028F0D1012F85
:1019300005D12948C06920F080502749C86100BFFF
:10194000E069C8B32448406800F00C00082860D063
:10195000E069022848D1002020490866FFF7A4FB6F
:10196000054606E0FFF7A0FB401B022801D9032033
:101970003AE61948006800F000700028F2D1206AA9
:10198000B0F5803F07D11448406820F40030A168CA
:10199000084311494860D4E9080108430E494968E1
:1019A00021F4741108430C49486001200B49086672
:1019B000FFF77AFB054607E03DE0FFF775FB401BAC
:1019C000022801D903200FE60348006800F00070E8
:1019D0000028F2D02FE00000001002400000424238
:1019E0008004424200700040002014490866FFF75E
:1019F0005BFB054606E0FFF757FB401B022801D9B9
:101A00000320F1E50E48006800F000700028F2D1D4
:101A100011E0E069012800D1E6E50948466806F4CE
:101A20008031206A814204D106F47011606A8142DB
:101A300001D00120D8E50020D6E500000000424298
:101A40000010024070470000F8B504462068466860
:101A500020688568C5F3801048B905F0010030B1F1
:101A6000C6F3801018B12046216C8847F8BDC5F335
:101A7000400030B1C6F3C01018B12046616C8847F1
:101A8000F4E7C5F3401018B9C5F38010002871D0F1
:101A9000C6F3401000286DD0C5F38010F0B194F863
:101AA000510003280ED0606D40F00400606500BF57
:101AB000002000902068C068009020688068009036
:101AC00000BF0BE000BF002000902068C0680090BD
:101AD00020688068009000BF00BFC7E7C5F34010D2
:101AE00088B1606D40F00100606500BF002000908B
:101AF0002068806800902068006820F0400021681D
:101B0000086000BF00BF606D70B32068406820F0BF
:101B1000E00021684860012084F8510006F00200CE
:101B200010B906F0010000B32068406820F00300FF
:101B300021684860E06C50B10F48E16C4863E06C8C
:101B4000FEF758FF18B1606D40F040006065A06C72
:101B500050B10948A16C4863A06CFEF74BFF18B167
:101B6000606D40F04000606502E02046FFF76AFFCC
:101B70007CE7FFE700BF79E74537000810B504466A
:101B80000CB9012010BD606A38B96068B0F5827F79
:101B900000D105E00021E16102E0002121616161E5
:101BA0000021A16294F8510028B9002084F8500067
:101BB000204600F043F8022084F8510020680068B5
:101BC00020F0400021680860A08800F4827021891C
:101BD00001F404410843A18901F400610843217C18
:101BE00001F002010843217D01F001010843218B2E
:101BF00001F400710843217F01F0380108432021DE
:101C0000095D01F080010843218D01F40051084372
:101C1000216808600421A06901EA10402168486039
:101C20002068C06920F400602168C86100206065F8
:101C3000012084F851000020A4E7000010B586B010
:101C400004460020029003900490059040492068CB
:101C500088423FD100BF3F48806940F480503D49F1
:101C600088610846806900F48050019000BF00BF81
:101C700000BF0846806940F0080088610846806916
:101C800000F00800019000BF00BF28200290022051
:101C900003900320059002A92F48FFF767F8102052
:101CA000029000200390049002A92B48FFF75EF8F1
:101CB00000BF2A49486840F0E06040F001004860F9
:101CC00000BF002211462320FFF77CFA2320FFF7F4
:101CD00069FA3BE022492068884237D100BF1D489D
:101CE000C06940F480401B49C8610846C06900F4DF
:101CF0008040019000BF00BF00BF0846806940F0EF
:101D0000080088610846806900F00800019000BF63
:101D100000BF4FF420400290022003900320059062
:101D200002A90D48FFF722F84FF4804002900020EE
:101D30000390049002A90848FFF718F80022114602
:101D40002420FFF73FFA2420FFF72CFA06B010BD3D
:101D50000030014000100240000C01400000014032
:101D6000003800402DE9F84F0446884616461D46C7
:101D70004FF0000A00BF94F85000012802D1022061
:101D8000BDE8F88F012084F8500000BFFFF78CF900
:101D90000746B14694F85100012802D04FF0020ADC
:101DA000B7E0B8F1000F00D016B94FF0010AB0E06B
:101DB000032084F8510000206065C4F83080A686B6
:101DC000E686A063A087E08760642064A068B0F521
:101DD000004F0BD12068006820F0400021680860A7
:101DE0002068006840F4804021680860206800682E
:101DF00000F04000402805D02068006840F0400016
:101E000021680860E068B0F5006F32D1606810B1F9
:101E1000B9F1010F09D1206B00882168C860206BDF
:101E2000801C2063E08E401EE0861EE020688068F3
:101E300000F0020002280AD1206B00882168C860E7
:101E4000206B801C2063E08E401EE0860DE0FFF7D3
:101E50002BF9C01BA84201D3681C00B92DB94FF063
:101E6000030A012084F8510053E0E08E0028DDD100
:101E700031E0606810B1B9F1010F09D1206B007831
:101E800021680873206B401C2063E08E401EE086B2
:101E90001EE02068806800F0020002280AD1206B52
:101EA000007821680873206B401C2063E08E401E80
:101EB000E0860DE0FFF7F8F8C01BA84201D3681CCC
:101EC00000B92DB94FF0030A012084F8510020E039
:101ED000E08E0028DDD13A462946204601F03CFC40
:101EE00008B120206065A06850B900BF00200090B4
:101EF0002068C068009020688068009000BF00BF24
:101F0000606D10B14FF0010A02E0012084F8510029
:101F100000BF00BF002084F8500000BF50462FE7EC
:101F20002DE9FF5F0446884691461D460E9E01201E
:101F300002900020019000BF94F85000012803D1C6
:101F4000022004B0BDE8F09F012084F8500000BFDB
:101F5000FFF7AAF8074694F851B060680390AA46C4
:101F6000BBF1010F0BD00398B0F5827F04D1A068BC
:101F700010B9BBF1040F02D002200190E9E0B8F1E2
:101F8000000F03D0B9F1000F00D015B90120019066
:101F9000DFE094F85100042802D0052084F85100B5
:101FA00000206065C4F83890E587A587C4F83080C4
:101FB000E586A586206460642068006800F0400023
:101FC000402805D02068006840F040002168086083
:101FD000E068B0F5006F4DD1606810B1BAF1010F43
:101FE00009D1206B00882168C860206B801C2063A9
:101FF000E08E401EE08636E02068806800F0020037
:10200000022810D1E08E70B1029801280BD1206B0C
:1020100000882168C860206B801C2063E08E401E11
:10202000E086002002902068806800F0010068B11E
:10203000E08F58B12068C068A16B0880A06B801C3D
:10204000A063E08F401EE08701200290FFF72CF88C
:10205000C01BB04207D3701C28B10320019001209F
:1020600084F8510075E0E08E0028C5D1E08F00288B
:10207000C2D14DE0606810B1BAF1010F09D1206BF7
:10208000007821680873206B401C2063E08E401E9E
:10209000E08637E02068806800F00200022810D156
:1020A000E08E70B1029801280BD1206B0078216876
:1020B0000873206B401C2063E08E401EE0860020E9
:1020C00002902068806800F0010068B1E08F58B18C
:1020D0002068C068A16B0870A06B401CA063E08FF3
:1020E000401EE08701200290FEF7DEFFC01BB042D9
:1020F00001D3701C00B92EB903200190012084F88F
:10210000510026E0E08E0028C4D1E08F0028C1D124
:102110003A463146204601F01FFB20B101200190D4
:102120002020606515E0A06850B900BF0020009035
:102130002068C068009020688068009000BF00BFE1
:10214000606D10B10120019002E0012084F851007F
:1021500000BF00BF002084F8500000BF0198F0E6E7
:1021600070B504462546681EB0F1807F01D301207A
:102170000FE0681E4FF0E02148610F214FF0FF3063
:1021800001F07AFF00204FF0E0218861072008610C
:10219000002070BD7047704730B502460B4600BF47
:1021A00092F83C00012801D1022030BD012082F8C4
:1021B0003C0000BF022082F83D00106844681068AF
:1021C000816824F070041868044310684460104D5E
:1021D0001068A8420BD01068B0F1804F07D00D4DA9
:1021E0001068A84203D00C4D1068A84205D121F018
:1021F00080015868014310688160012082F83D0029
:1022000000BF002082F83C0000BF00BFCDE7000007
:10221000002C0140000400400008004010B50446B6
:102220000CB9012010BD94F83D0028B9002084F8B5
:102230003C00204600F026F8022084F83D00211DD5
:10224000206801F003FD012084F8460000BF84F8F7
:102250003E0001213F2001554020015541200155FC
:1022600000BF00BF012084F84200432001554420F4
:1022700001554520015500BF012084F83D00002094
:10228000D0E7000038B504461E49206888421ED1B8
:1022900000BF1D48806940F400601B498861084602
:1022A000806900F40060009000BF00BF002211466A
:1022B0001820FEF787FF1820FEF774FF0022114652
:1022C0001920FEF77FFF1920FEF76CFF19E0206848
:1022D000B0F1804F15D100BF0B48C06940F001003C
:1022E0000949C8610846C06900F00100009000BFBC
:1022F00000BF002211461C20FEF764FF1C20FEF7E1
:1023000051FF38BD002C014000100240014691F8F9
:102310003D00012801D001207047022081F83D00D6
:102320000868C06840F001000B68D860124B08686C
:1023300098420BD00868B0F1804F07D00F4B086867
:10234000984203D00E4B086898420CD10868806808
:1023500000F00702062A0CD00868006840F001006F
:102360000B68186005E00868006840F001000B6821
:1023700018600020D0E70000002C0140000400405D
:10238000000800402DE9F04104460D46002700BF3B
:1023900094F83C00012802D10220BDE8F081012020
:1023A00084F83C0000BF022084F83D002068866865
:1023B00026F0770626F47F46206886602868502835
:1023C00033D00CDC202850D004DC00284BD010285F
:1023D00051D149E0302849D040284CD139E060281B
:1023E0002DD0702807D0B0F5805F03D0B0F5005F26
:1023F00041D10DE041E0D5E902136A68206801F09F
:102400005FFC2068866846F077062068866034E0C6
:10241000D5E902136A68206801F052FC20688068E0
:1024200040F480402168886027E0EA686968206895
:1024300001F05AFC5021206801F04DFC1DE0EA68D3
:102440006968206801F063FC6021206801F043FCAA
:1024500013E0EA686968206801F046FC40212068C2
:1024600001F039FC09E000BF00BF00BF2968206807
:1024700001F031FC01E0012700BF00BF012084F81A
:102480003D0000BF002084F83C0000BF384684E7D0
:10249000704710B5044620680069C0F34000D8B109
:1024A0002068C068C0F34000B0B16FF0020021683E
:1024B0000861012020772068806900F0030018B1CE
:1024C0002046FFF7E5FF05E0204600F0ADF8204686
:1024D00000F0ABF80020207720680069C0F380008E
:1024E000D8B12068C068C0F38000B0B16FF00400BC
:1024F00021680861022020772068806900F440701C
:1025000018B12046FFF7C4FF05E0204600F08CF824
:10251000204600F08AF80020207720680069C0F388
:10252000C000D8B12068C068C0F3C000B0B16FF07F
:10253000080021680861042020772068C06900F045
:10254000030018B12046FFF7A3FF05E0204600F086
:102550006BF8204600F069F80020207720680069B9
:10256000C0F30010D8B12068C068C0F30010B0B14B
:102570006FF0100021680861082020772068C0698A
:1025800000F4407018B12046FFF782FF05E02046B6
:1025900000F04AF8204600F048F800202077206834
:1025A000006900F0010058B12068C06800F0010027
:1025B00030B16FF0010021680861204600F036F864
:1025C00020680069C0F3C01058B12068C068C0F32B
:1025D000C01030B16FF08000216808612046FFF71D
:1025E000D9FD20680069C0F3801058B12068C06828
:1025F000C0F3801030B16FF04000216808612046C0
:1026000000F028F820680069C0F3401058B1206835
:10261000C068C0F3401030B16FF02000216808613D
:102620002046FFF7B8FD10BD7047704710B504464F
:102630000548844206D1282204490548FEF71AF9C4
:10264000FDF732FE10BD00007806002004050020D2
:1026500054050020704710B504460CB9012010BD88
:10266000A06900B100E000BF94F8410028B9002043
:1026700084F84000204600F029F8242084F8410026
:102680002068C06820F400502168C860204601F02E
:1026900021FC2068006920F49040216808612068CE
:1026A000406920F02A00216848612068C06840F431
:1026B00000502168C86000206064202084F8410038
:1026C00084F842000020606300BFC8E710B586B000
:1026D0000446002002900390049005901E49206853
:1026E000884236D100BF1D48806940F480401B49B4
:1026F00088610846806900F48040019000BF00BFF7
:1027000000BF0846806940F008008861084680697B
:1027100000F00800019000BF00BF4020029002209E
:1027200003900320059002A90D48FEF71FFB8020AF
:10273000029000200390049002A90948FEF716FBBE
:1027400000BF0849486840F0E06040F0040048607D
:1027500000BF06B010BD000000380140001002406C
:10276000000C0140000001402DE9F84F04460E46E0
:10277000174699464FF0000A94F8410020284AD1A4
:1027800006B117B90120BDE8F88F00206064212050
:1027900084F84100FEF788FC8246A784E784A0689D
:1027A000B0F5805F04D1206910B90025B04602E081
:1027B00035464FF000081BE053460022802120469A
:1027C000CDF8009001F004FC08B10320DBE745B927
:1027D000B8F80000C0F308002168486008F102085A
:1027E00003E02878216848606D1CE08C401EE0847E
:1027F000E08C0028E0D15346002240212046CDF84D
:10280000009001F0E5FB08B10320BCE7202084F82C
:1028100041000020B7E70220B5E700BFFEE72DE941
:10282000F04705460E4617461C46DDE908892A2270
:102830003146284600F05DFB3A463146284600F016
:102840003FFB42463146284600F03AFB2B223146F8
:10285000284600F04EFB22463146284600F030FB69
:102860004A463146284600F02BFB2C2231462846AA
:1028700000F03FFBBDE8F0872DE9FC4104460D4622
:1028800016461F460849A068486033462A46214636
:102890000548CDE90056FFF7C2FF3A4621460248F7
:1028A00000F00EFBBDE8FC81340000202DE9FC5F48
:1028B00004460D4616461F46DDE90C8B1349A068F9
:1028C0004860A8F1010080B2791E89B233462A46D9
:1028D000CDE9001021460D48FFF7A1FFB14610E0F9
:1028E000AA4608E05A462146084800F0E9FA0AF1EB
:1028F00001001FFA80FABA45F4DB09F101001FFA62
:1029000080F9C145ECDBBDE8FC9F000034000020ED
:102910001CB5044601F072F904F10800C84948608A
:1029200000F034FB6420FEF70DFA00F039FB642060
:10293000FEF708FA00F0F8FA6420FEF703FA112215
:102940002146BF4800F0D5FA7820FEF7FBF9B12206
:102950002146BB4800F0CDFA05222146B84800F0D8
:10296000BEFA3C222146B64800F0B9FA3C22214684
:10297000B34800F0B4FAB2222146B14800F0B9FAE7
:1029800005222146AE4800F0AAFA3C222146AC4876
:1029900000F0A5FA3C222146A94800F0A0FAB32293
:1029A0002146A74800F0A5FA05222146A44800F0D8
:1029B00096FA3C222146A24800F091FA3C22214698
:1029C0009F4800F08CFA052221469D4800F087FAC6
:1029D0003C2221469A4800F082FA3C22214698483F
:1029E00000F07DFAB4222146954800F082FA0322D5
:1029F0002146934800F073FAC0222146904800F027
:102A000078FA282221468E4800F069FA08222146E9
:102A10008B4800F064FA04222146894800F05FFAEE
:102A2000C1222146864800F064FAC022214684482B
:102A300000F055FAC2222146814800F05AFA0D22D0
:102A400021467F4800F04BFA002221467C4800F0E6
:102A500046FAC32221467A4800F04BFA8D222146DD
:102A6000774800F03CFA2A222146754800F037FAF0
:102A7000C4222146724800F03CFA8D22214670485B
:102A800000F02DFAEE2221466D4800F028FAC5220A
:102A900021466B4800F02DFA1A222146684800F0C2
:102AA0001EFA36222146664800F023FAC02221464B
:102AB000634800F014FAE0222146614800F019FA58
:102AC000042221465E4800F00AFA222221465C4890
:102AD00000F005FA07222146594800F000FA0A22C0
:102AE0002146574800F0FBF92E222146544800F0B9
:102AF000F6F930222146524800F0F1F9252221460C
:102B00004F4800F0ECF92A2221464D4800F0E7F941
:102B1000282221464A4800F0E2F926222146484868
:102B200000F0DDF92E222146454800F0D8F93A227E
:102B30002146434800F0D3F900222146404800F0E6
:102B4000CEF9012221463E4800F0C9F90322214670
:102B50003B4800F0C4F913222146394800F0BFF980
:102B6000E1222146364800F0C4F9042221463448C7
:102B700000F0B5F916222146314800F0B0F90622DE
:102B800021462F4800F0ABF90D2221462C4800F0D9
:102B9000A6F92D2221462A4800F0A1F92622214635
:102BA000274800F09CF923222146254800F097F998
:102BB00027222146224800F092F927222146204868
:102BC00000F08DF9252221461D4800F088F92D22BC
:102BD00021461B4800F083F93B222146184800F0AB
:102BE0007EF900222146164800F079F9012221469B
:102BF000134800F074F904222146114800F06FF9DF
:102C0000132221460E4800F06AF93A2221460C4868
:102C100000F06FF905222146094800F060F92922E9
:102C20002146074800F065F94FF6FF70A021802388
:102C30000022CDE9001011462046FFF737FE1CBDEB
:102C4000340000202DE9F04F87B083460F469146AF
:102C50009846129D5249DBF8080048600020059014
:102C60000397284605EBD071C1F347042046E217CD
:102C700004EB5272D2102146E31704EB5373DB10BE
:102C8000A4EBC3030BB1012300E000231A446A4301
:102C900092B20492A8F1200000F0FF0809EB0500B1
:102CA000401E80B23919491E89B24B463A46CDE9D9
:102CB000001059463A48FFF7B2FD00266BE00C2D94
:102CC00007D108EB4800374901EB8000805D069092
:102CD0001CE0102D05D1344800EB0810805D0690F3
:102CE00014E0182D07D108EB4800304901EB001023
:102CF000805D06900AE0202D05D12D4800EB88105C
:102D0000805D069002E007B0BDE8F08F4FF0000A4A
:102D10003BE01398E8B9012000FA0AF00699084050
:102D200028B159461E48109A00F0CAF804E05946E6
:102D30001B48119A00F0C4F80598401CC0B20590D9
:102D4000059890FBF4F104FB1100D0B90020059028
:102D50001EE0012000FA0AF00699084028B14A4610
:102D600039465846109BFFF787FD781C87B20398B9
:102D7000381AA04205D1039F09F101001FFA80F91A
:102D800006E00AF1010000F0FF0ABAF1080FC0DB0B
:102D900000BF701C86B20498864290DB00BFB2E789
:102DA00034000020284200089C4600088C4C000893
:102DB0005C5E00082DE9FF4F87B080460F469946BC
:102DC000DDE915AB179E149D2849D8F80800486026
:102DD000304606EBD071C1F34701059124494846BE
:102DE000FDF7C4F90390FDF701FA80B204900024C6
:102DF00036E0281B401EC1B20A2001F0F5F9049903
:102E0000B1FBF0F00A21B0FBF1F201FB12000690D9
:102E1000A81EA04212D10020AA1ECDE900ABCDE928
:102E20000260059802FB007081B22E234046099A89
:102E3000FFF708FF601CC4B2681CC5B20020CDE9D2
:102E400000ABCDE9026006983030C3B2059804FBB0
:102E5000007081B24046099AFFF7F4FE601CC4B2CC
:102E6000AC42C6DB0BB0BDE8F08F000034000020A0
:102E70000000C8422DE9FF5F06460F4690461C46FB
:102E8000DDE9105BDDE90E9A0C49B068486010E09E
:102E9000CDE9025BCDE9009A2378424639463046B7
:102EA000FFF7D0FE284605EBD07107EB61018FB22A
:102EB000641C20780028EBD1BDE8FF9F340000207F
:102EC00070B505460E46144622123146284600F0DB
:102ED0001EF8E2B23146284600F019F870BD70B510
:102EE00004460D46164632462946204600F00FF8A5
:102EF00070BD70B504460D46164600F033F83246F4
:102F00002946204600F003F800F036F870BD70B591
:102F100004460D46164600F011F8A86831462268AE
:102F2000904700F015F870BD10B50122D10202489B
:102F3000FEF7B4F810BD00000008014010B50022F3
:102F40004FF480610148FEF7A9F810BD0008014068
:102F500010B5012291020248FEF7A0F810BD000052
:102F60000008014010B500224FF400710148FEF73F
:102F700095F810BD0008014010B501225102024829
:102F8000FEF78CF810BD00000008014010B50022CB
:102F90004FF480710148FEF781F810BD0008014030
:102FA00010B5012211020248FEF778F810BD0000AA
:102FB0000008014073B50446FFF7C0FF0A23012251
:102FC00001A92046FEF7CEFE0546FFF7C1FF2846C1
:102FD0007CBD00000EB500200090019002902348B7
:102FE0002349086081152248816000210173017521
:102FF0004FF46021C16100201D49486004211C4834
:103000000161FDF73FFB08B1FDF785FA0020009054
:10301000012001900220029069461548FDF77EFAD2
:1030200008B1FDF778FA012000900220019069466E
:103030000F48FDF773FA08B1FDF76DFA0220009012
:103040000320019069460A48FDF768FA08B1FDF7C8
:1030500062FA052000900420019069460448FDF7BB
:103060005DFA08B1FDF757FA0EBD000000240140DB
:103070005405002008B500BF0A48406940F001002F
:10308000084948610846406900F00100009000BF0F
:1030900000BF002211460B20FEF794F80B20FEF72C
:1030A00081F808BD0010024000B585B000200190F5
:1030B00002900390049000BF2F48806940F02000E8
:1030C0002D4988610846806900F02000009000BF0B
:1030D00000BF00BF0846806940F0040088610846D0
:1030E000806900F00400009000BF00BF00BF0846E8
:1030F000806940F0080088610846806900F0080097
:10310000009000BF00BF002240F608711B48FDF789
:10311000C5FF002201211A48FDF7C0FF40F60870E4
:10312000019001200290002003900220049001A948
:103130001248FDF71BFE50200190002002900390E2
:1031400001A90E48FDF712FE012001900290002017
:1031500003900220049001A90948FDF707FE022010
:103160000190002002900120039001A90448FDF77E
:10317000FDFD05B000BD0000001002400008014048
:10318000000C014010B50E480E4908604FF48270E3
:10319000486000210B488160C160016141614FF4CA
:1031A000007181612021C16100210162416281625F
:1031B0000A21C162FEF7E2FC08B1FDF7ACF910BDCF
:1031C00000300140C805002010B50E480E490860C7
:1031D0004FF48270486000210B488160C16001613A
:1031E00041614FF4007181610021C161016241625E
:1031F00081620A21C162FEF7C1FC08B1FDF78BF9BB
:1032000010BD0000003800402006002000B587B047
:1032100000200390049005900690019002901548BC
:10322000154908604720486000211348816040F23A
:10323000E731C1600021016141618161FEF7EEFF6C
:1032400008B1FDF768F94FF48050039003A90A48CC
:10325000FFF798F808B1FDF75EF9002001900290A1
:1032600001A90548FEF798FF08B1FDF754F907B02A
:1032700000BD0000002C01407806002000B587B09A
:1032800000200390049005900690019002904FF06A
:10329000804014490860472048600021114881603F
:1032A00040F2CF71C160002101618161FEF7B6FF7C
:1032B00008B1FDF730F94FF48050039003A9094895
:1032C000FFF760F808B1FDF726F9002001900290A1
:1032D00001A90448FEF760FF08B1FDF71CF907B02B
:1032E00000BD0000C006002010B50B480B49086067
:1032F0004FF4E1304860002108488160C1600161FD
:103300000C21416100218161C161FFF7A4F908B17D
:10331000FDF701F910BD000000380140080700204A
:1033200000BFFEE700BFFEE770B504460D4600266D
:1033300005F07005204600F03DF806460022082101
:103340000A48FDF7ABFE606822682721904745EAEE
:103350000601606822689047012208210348FDF7B2
:103360009DFE204600F026F870BD000000080140D8
:1033700070B504460D462946204600F0A0FE70BDFB
:1033800070B504460D46002208210948FDF786FE67
:10339000294660682268904760682268FF2190474C
:1033A0000646012208210248FDF778FE304670BD2E
:1033B0000008014070B50446002208210748FDF7C7
:1033C0006DFE6068226807219047054601220821AA
:1033D0000248FDF763FE284670BD0000000801406A
:1033E00070B506460D4606213046FFF7C9FF20F0AE
:1033F000070435B1012D06D0022D07D0032D0BD1C6
:1034000007E000BF09E044F0020406E044F00404D1
:1034100003E044F0060400E000BF00BF224606219E
:10342000304600F0B5F870BD2DE9F04106460C4677
:1034300017461D46052D01DD052000E028460546FE
:10344000052C01DD052000E02046044604F10A00B9
:10345000C1B22B463A46304600F076F8BDE8F0811E
:1034600070B506460D461446052C01DD052000E02A
:103470002046044623462A461021304600F064F8D0
:1034800070BD00002DE9F04104460D4600260027DE
:10349000002208212A48FDF701FE60682268E12128
:1034A0009047012208212648FDF7F8FD002201215E
:1034B0002448FDF7F3FD95F820302A46A021204648
:1034C00000F042F8012211461E48FDF7E7FD10E02A
:1034D0000120FDF737FC3846791C8FB2B0F5FA7F32
:1034E00007D1204600F086F80021204600F0F2F8CF
:1034F00009E002211348FDF7C9FD012800D100E0D1
:1035000000200028E4D100BF07212046FFF738FF44
:10351000064632460721204600F03AF806F0100031
:1035200038B1FF22E121204600F032F81020BDE83A
:10353000F08106F0200008B12020F8E7FF20F6E730
:1035400000080140000C01402DE9F04104460E4600
:1035500017469846002208210C48FDF79FFD46F0CB
:103560002001606822689047002505E0795D606869
:1035700022689047681CC5B24545F7DB0122082147
:103580000248FDF78BFDBDE8F08100000008014016
:1035900070B504460D461646002208210848FDF77E
:1035A0007DFD45F0200160682268904760682268D0
:1035B00031469047012208210148FDF76FFD70BD9B
:1035C000000801407047000008B508490968C908AB
:1035D0004FF47A72B1FBF2F14143009100BF00BF9A
:1035E00000994A1E00920029F9D108BD240000204C
:1035F000704700001CB504462BA103C9CDE90001AA
:1036000070212046FFF790FE01221C212046FFF783
:10361000BFFF07221D212046FFF7BAFF1C212046CD
:10362000FFF7AEFE1D212046FFF7AAFE0A22002169
:103630002046FFF7ADFF012211462046FFF7A8FF05
:10364000012202212046FFF7A3FFFF22042120468A
:10365000FFF79EFF032211462046FFF799FF002245
:1036600005212046FFF794FF0F2206212046FFF791
:103670008FFF052269462046FFF7F2FE05236A46C2
:1036800000212046FFF7D0FE002201212046FFF74F
:103690007FFF012202212046FFF77AFF0F2200213F
:1036A0002046FFF775FF1CBD3443101001000000D9
:1036B00004480549C1F842000449486004480860CC
:1036C00070470000C8050020500700202C00002093
:1036D0007133000870B505460C46002600212846C7
:1036E000FFF74EFE0646002201210D48FDF7D6FCED
:1036F0002CB9022200212846FFF74AFF06E0012CE0
:1037000004D1032200212846FFF742FF012211467F
:103710000348FDF7C3FC0A20FDF714FB70BD000051
:10372000000C014010B50248FEF78EF910BD0000F4
:10373000C805002010B50248FEF786F910BD00004C
:103740002006002070B505466C6A0020E087E08600
:103750002046FEF777F970BDF8B504460D461646CB
:103760002B46002280212046009600F009F828B15F
:10377000606D40F0200060650320F8BD0020FCE78C
:103780002DE9F84F04460D4690461E46DDF8289078
:10379000FDF78AFCA0EB0900371AFDF785FC82468D
:1037A0002C480068C0F3CB307843009045E0701C93
:1037B000002842D0FDF778FCA0EB0A00B84200D206
:1037C000A7BB2068406820F0E0002168486060687E
:1037D000B0F5827F0DD1A068B0F5004F03D0A0688E
:1037E000B0F5806F05D12068006820F040002168A6
:1037F0000860A06AB0F5005F0DD100BF20680068C6
:1038000020F40050216808602068006840F40050EF
:103810002168086000BF012084F8510000BF00202B
:1038200084F8500000BF0320BDE8F88FFFE7009840
:1038300000B900270098401E00902068806828404A
:10384000A84201D1012000E000204045AFD1002076
:10385000EAE7000024000020704700000FB400B524
:103860008FB00E4800880E4948820E480088888232
:103870000D480088C8820D4800880883362216A9A2
:103880006846FCF74FFC12A80FC800F055FA12A9C1
:1038900010A8FFF7F7FD0FB05DF814FB0E00002035
:1038A0003C00002010000020120000201400002026
:1038B0007FB500200C214FF6FF72CDE90002A1A3D5
:1038C0000122CDE902101146A048FFF7D3FA0020EB
:1038D0000C214FF6FF72CDE900029DA30122CDE934
:1038E000021031219948FFF7C5FA00200C214FF64C
:1038F000FF72CDE9000297A30122CDE90210502109
:103900009248FFF7B7FA00200C214FF6FF72CDE97D
:103910000002924B1822CDE9021050218B48FFF78C
:1039200049FA012446E000200C214FF6FF72CDE950
:103930000002CDE902108A4800EB0410C31C601C91
:1039400000EB4000820001218048FFF793FA844990
:1039500001EB04110878FCF744FC054600200C211B
:103960004FF6FF72CDE90002CDE90210601C00EBBA
:10397000400082002B4631217448FFF71BFA78493A
:1039800001EB0411B1F80100FCF72BFC0546002007
:103990000C214FF6FF72CDE90002CDE90210601C48
:1039A00000EB400082002B4650216848FFF702FAE6
:1039B000601CC4B26A4890F82003A042B3DA012424
:1039C00052E000200C214FF6FF72CDE90002CDE954
:1039D0000210644800EB0410C31C614890F82103F6
:1039E000401C204400EB4000820001215748FFF7B3
:1039F00041FA5C4901EB04110878FCF7F2FB05463B
:103A000000200C214FF6FF72CDE90002CDE9021033
:103A1000534890F82103401C204400EB40008200F2
:103A20002B4631214948FFF7C5F94E4901EB0411F6
:103A3000B1F90100FCF7CCFB054600200C214FF644
:103A4000FF72CDE90002CDE90210454890F821034C
:103A5000401C204400EB400082002B4650213B4894
:103A6000FFF7A8F9601CC4B23D4890F82103A042BA
:103A7000A7DA01245FE000200C214FF6FF72CDE9A8
:103A80000002CDE90210364890F82103401C344969
:103A900091F820130844204400EB4000820004EB1E
:103AA000C401314800EB4100431D01212748FFF7C5
:103AB000E1F904EBC4022C4911F81200FCF791FB68
:103AC000054600200C214FF6FF72CDE90002CDE93A
:103AD0000210234890F82103401C214991F820133B
:103AE0000844204400EB400082002B463121174857
:103AF000FFF760F900200C214FF6FF72CDE90002BC
:103B0000CDE90210164890F82103401C144991F8A1
:103B100020130844204400EB4000820004EBC40161
:103B2000114800EB4100D0F8013050210748FFF761
:103B300041F9601CC4B20A4890F82203A0429ADA04
:103B40007FBD00004E414D4500000000A40700204D
:103B50004944000056414C55450000009A992141C6
:103B6000DF010020DF020020DF03002010B5FDF799
:103B7000A1FA10BD00B593B0282109A8FCF7EBFA13
:103B8000142104A8FCF7E7FA0020009001900290AD
:103B900003900120099000040A9000200B9001205E
:103BA0000D9002201090C10311914FF4E011129179
:103BB00009A8FDF715FD08B1FCF7ADFC0F20049036
:103BC00002200590002006904FF4806007900020AE
:103BD0000890022104A8FDF7DFFB08B1FCF79BFC6D
:103BE00002200090800302906846FDF73DFB08B17B
:103BF000FCF791FC13B000BD704700000348044976
:103C0000086004480449886070470000B52F000828
:103C10003400002020060020A407002010B5024830
:103C2000FEF737FC10BD00007806002010B50248F2
:103C3000FEF72FFC10BD00007806002010B50248EA
:103C4000FEF727FC10BD0000C006002010B502687A
:103C5000184B984208D0B0F1804F05D0164B9842CF
:103C600002D0164B984203D122F070024B681A43DF
:103C7000104B984208D0B0F1804F05D00E4B9842BF
:103C800002D00E4B984203D122F44072CB681A4303
:103C900022F080034C6943EA040202608B68C3622D
:103CA0000B688362034B984201D10B6903630123C4
:103CB000436110BD002C014000040040000800409A
:103CC00030B50C46816821F47F4142EA0325254343
:103CD0002943816030BD0A46816821F0700142F0BD
:103CE000070319438160704730B50B461446026ADA
:103CF000056A25F001050562816921F0F00141EABC
:103D0000041122F00A021A438161026230BD30B50B
:103D10000B461446026A056A25F0100505628169A2
:103D200021F4704141EA043122F0A00242EA031278
:103D30008161026230BD00000FB4A5208DF8000043
:103D40006348807C8DF801006148408A000A8DF844
:103D500002005F48007D8DF803005D48808A000AFC
:103D60008DF804005A48807D8DF805005848C08AB7
:103D7000000A8DF806005648007E8DF8070054486A
:103D8000008B000A8DF808005148807E8DF80900EC
:103D90004F48408B000A8DF80A004D48007F8DF88F
:103DA0000B004B48808B000A8DF80C004848407B84
:103DB00010B101208DF80D004548407B28B14448E2
:103DC000C07B10B102208DF80D004148407B28B126
:103DD0003F48807B10B108208DF80D003C48007CE6
:103DE00010B105208DF80D003948007C28B1384805
:103DF000C07B10B104208DF80D003548007C28B13F
:103E00003348807B10B106208DF80D003048C07B10
:103E100010B103208DF80D002D48807B10B10720D4
:103E20008DF80D002A48007808B1012000E000203C
:103E30002749497809B1022100E0002108432449BB
:103E4000897809B1082100E0002108432049C97898
:103E500009B1102100E0002108431D49097A09B188
:103E6000402100E0002108431949497A09B1802125
:103E700000E0002108438DF80E001548807A08B153
:103E8000042000E000201249C97909B1082100E0AE
:103E9000002108430E49C97A09B1102100E0002130
:103EA00008430B49097B09B1202100E000210843A8
:103EB0008DF80F000648007908B1012000E00020CD
:103EC0008DF81000A6208DF8110004B07047000096
:103ED0003C00002070B504462168096921F4405176
:103EE000E2681143226811612269A1681143626985
:103EF00041EA02052168C96841F20C6291432943F5
:103F00002268D1602168496921F44071A269114396
:103F1000226851612D4A2168914202D1FDF718FBB8
:103F200001E0FDF705FB00EBC00101EB0011626849
:103F30009200B1FBF2F100EBC00202EB00126368E9
:103F40009B00B2FBF3F26423B2FBF3F202EBC20379
:103F500003EB0212A1EB8201322202EB0111642277
:103F6000B1FBF2F101F0F00100EBC00202EB001234
:103F700063689B00B2FBF3F26423B2FBF3F201EB44
:103F8000021200EBC00101EB001163689B00B1FB62
:103F9000F3F100EBC00303EB00136668B600B3FB5C
:103FA000F6F36426B3FBF6F303EBC30606EB031349
:103FB000A1EB8301322303EB01116423B1FBF3F185
:103FC00001F00F0111442268916070BD003801407A
:103FD0002DE9F04104460D4617469846069E34E00A
:103FE000701C88B32EB1FDF75FF8A0EB0800B0425B
:103FF0002BD900BF00BF21680C3151E8001F21F40C
:10400000D07021680C3141E80002002AF3D100BFD2
:1040100000BF00BF2168143151E8001F21F00100EA
:104020002168143141E80002002AF3D100BF2020AA
:1040300084F8410084F8420000BF002084F840006A
:1040400000BF0320BDE8F081FFE72068006828403A
:10405000A84201D1012000E00020B842C0D00020D9
:10406000F0E700BFFEE7000002480068C0F302204E
:10407000704700000CED00E010B5002804DB0A07D3
:10408000130E054A135406E00A07140E034A00F003
:104090000F031B1FD45410BD00E400E018ED00E036
:1040A00002E008C8121F08C1002AFAD17047704701
:1040B000002001E001C1121F002AFBD1704713B597
:1040C00082B00446002001904FF6FF70012301AA40
:1040D00003A900902046FDF723FF9DF8040004B0DB
:1040E00010BD0000A4B0FCF7F1FFFFF743FDFEF7A1
:1040F000DBFFFEF7BFFFFFF745F8FFF7BFF8FEF75E
:1041000069FFFFF761F8FFF781F8FFF7EDF82B483B
:10411000FEF7FCF82A48FEF7F9F82A48FEF7F8FB04
:10412000FFF7C6FA2848FFF765FA00212648FFF78F
:1041300057F9062211462448FFF72AFA002122489F
:10414000FFF7C8FA2020214981F8200001202049EA
:1041500081F8200308461FA10968C0F803102A202F
:104160001B49A1F8010028E0FFF7A2FB4FF47A7386
:10417000122216491948FEF7F7FA3E221349083170
:104180006846FBF7CFFF4622104912A8FBF7CAFF8B
:104190000D4801681091406811900146DDE9122335
:1041A0001098FFF75BFB0E480078401C0C49087024
:1041B0000C480078401C0B490870D5E778060020B1
:1041C000C0060020A40700202C000020500700207B
:1041D000DF010020746573740000000008070020F0
:1041E000020000200100002010B50246012000E07E
:1041F00050430B1EA1F10104E1B2F9D110BD02033D
:104200000405060708090A0B0C0D0E0F1010010219
:104210000000000000000000010203040607080976
:104220000000000001020304000000000000000084
:104230000000000000000404040404000004000066
:1042400014140A00000000000000000000000A0A28
:104250001F0A0A1F0A0A000000040E1505060C14A6
:10426000150E0400000012150D152E2C2A12000048
:104270000000040A0A361515291600000202010082
:1042800000000000000000001008080404040404FA
:1042900008081000020404080808080804040200C2
:1042A00000000004150E0E150400000000000008B8
:1042B000083E0808000000000000000000000000A8
:1042C0000202010000000000003F000000000000AA
:1042D000000000000000000000020000002010109C
:1042E000080804040202010000000E11111111114E
:1042F000110E00000000040604040404040E000073
:1043000000000E1111080402011F000000000E1130
:10431000100C1010110E00000000080C0C0A091FF0
:10432000081C000000001F01010F1110110E0000F9
:1043300000000C12010D1311110E000000001E10E0
:10434000080804040404000000000E11110E1111ED
:10435000110E000000000E111119161009060000C0
:104360000000000004000000000400000000000045
:10437000000400000004040000001008040202040D
:1043800008100000000000003F003F000000000097
:1043900000000204081010080402000000000E11C2
:1043A000110804040004000000001C22292D2D1D0A
:1043B000221C0000000004040C0A0A1E1233000034
:1043C00000000F12120E1212120F000000001E1138
:1043D00001010101110E000000000F121212121251
:1043E000120F000000001F120A0E0A02121F000026
:1043F00000001F120A0E0A020207000000001C1231
:1044000001013911120C000000003312121E1212A9
:104410001233000000001F0404040404041F000001
:1044200000003E08080808080808090700003712BD
:104430000A060A12123700000000070202020202F6
:10444000223F000000003B1B1B1B1515153500000B
:1044500000003B1216161A1A1217000000000E1167
:1044600011111111110E000000000F12120E0202A4
:104470000207000000000E1111111117190E18008B
:1044800000000F12120E0A121237000000001E1157
:1044900001060810110F000000001F150404040499
:1044A000040E00000000331212121212120C00004F
:1044B00000003312120A0A0C040400000000151553
:1044C00015150E0A0A0A000000001B0A0A04040A55
:1044D0000A1B000000001B0A0A0A0404040E000064
:1044E00000001F0908040402121F00001C04040439
:1044F0000404040404041C00000202040404080868
:10450000081010000E0808080808080808080E001F
:10451000040A00000000000000000000000000008D
:10452000000000000000003F020400000000000046
:104530000000000000000000000C121C123C0000F3
:1045400000030202020E1212120E00000000000010
:10455000001C1202120C000000181010101C121285
:10456000123C000000000000000C121E021C0000A3
:1045700000182404041E0404041E000000000000AF
:10458000003C120C021C221C00030202020E12123A
:10459000123700000004040000060404040E0000AA
:1045A00000080800000C08080808080700030202B9
:1045B000021A0A060A130000000704040404040493
:1045C000041F000000000000000F15151515000065
:1045D00000000000000F121212370000000000005F
:1045E000000C1212120C000000000000000F12124A
:1045F000120E020700000000001C1212121C1038DC
:1046000000000000001B060202070000000000007E
:10461000001E020C101E000000000004041E040412
:10462000041C000000000000001B1212123C0000DD
:1046300000000000001B0A0A040400000000000043
:104640000015150E0A0A000000000000001B0A04F5
:104650000A1B000000000000003312120C080403C3
:1046600000000000001E0804041E000018080808CE
:10467000080C0808080818000808080808080808AE
:1046800008080808060404040408040404040600D6
:1046900016090000000000000000000000000000FB
:1046A0000000000000000000000000000000000802
:1046B00008080808080800001818000000486C24C2
:1046C00012000000000000000000000000000024B4
:1046D00024247F1212127F12121200000000081C04
:1046E0002A2A0A0C1828282A2A1C08080000002256
:1046F000251515152A585454542200000000000CAA
:104700001212120A76252911916E00000006060485
:104710000300000000000000000000000040201026
:1047200010080808080808101020400000020408BB
:1047300008101010101010080804020000000000FB
:1047400008086B1C1C6B080800000000000000003B
:10475000080808087F08080808000000000000009A
:104760000000000000000000060604030000000036
:1047700000000000FE00000000000000000000003B
:10478000000000000000000006060000000080405D
:104790004020201010080804040202000000001845
:1047A00024424242424242422418000000000008D3
:1047B0000E08080808080808083E00000000003C31
:1047C0004242422020100804427E00000000003CCB
:1047D0004242201820404042221C000000000020DD
:1047E0003028242422227E20207800000000007E31
:1047F0000202021A26404042221C0000000000383B
:104800002402021A26424242241800000000007EC0
:104810002222101008080808080800000000003CC8
:104820004242422418244242423C00000000001848
:104830002442424264584040241C00000000000012
:104840000000181800000000181800000000000008
:1048500000000008000000000008080400000040FC
:10486000201008040204081020400000000000008E
:1048700000007F0000007F00000000000000000238
:104880000408102040201008040200000000003C32
:104890004242464020101000181800000000001C82
:1048A000225A555555552D42221C00000000000883
:1048B00008181414243C224242E700000000001FA4
:1048C0002222221E22424242221F00000000007CBF
:1048D0004242010101010142221C00000000001FB0
:1048E0002242424242424242221F00000000003F58
:1048F0004212121E12120242423F00000000003F0C
:104900004212121E12120202020700000000003CB6
:104910002222010101712122221C0000000000E777
:10492000424242427E42424242E700000000003ED4
:104930000808080808080808083E00000000007C75
:1049400010101010101010101010110F0000007730
:1049500022120A0E0A12122222770000000000071B
:104960000202020202020202427F000000000077FF
:10497000363636362A2A2A2A2A6B0000000000E33F
:1049800046464A4A52525262624700000000001CEA
:104990002241414141414141221C00000000003FB1
:1049A000424242423E020202020700000000001C96
:1049B0002241414141414D53321C60000000003F03
:1049C0004242423E1212222242C700000000007CF6
:1049D0004242020418204042423E00000000007F94
:1049E0004908080808080808081C0000000000E73B
:1049F0004242424242424242423C0000000000E742
:104A00004242222424141418080800000000006BFD
:104A1000494949495555362222220000000000E745
:104A2000422424181818242442E7000000000077CC
:104A30002222141408080808081C00000000007E48
:104A40002120101008040442423F000000780808AA
:104A5000080808080808080808087800000002028A
:104A6000040408080810102020204040001E1010E8
:104A7000101010101010101010101E0000384400FC
:104A80000000000000000000000000000000000026
:104A90000000000000000000000000FF0006080009
:104AA0000000000000000000000000000000000006
:104AB0000000003C4278444242FC00000000000339
:104AC0000202021A26424242261A0000000000009A
:104AD0000000003844020202443800000000006078
:104AE000404040784442424264D800000000000048
:104AF0000000003C427E0202423C0000000000F048
:104B00008808087E08080808083E00000000000029
:104B10000000007C22221C023C42423C00000003B8
:104B20000202023A4642424242E700000000000C04
:104B30000C00000E08080808083E000000000030C5
:104B400030000038202020202020221E00000003FA
:104B500002020272120A1612227700000000000EF2
:104B60000808080808080808083E000000000000BF
:104B70000000007F9292929292B700000000000025
:104B80000000003B4642424242E7000000000000B5
:104B90000000003C42424242423C00000000000053
:104BA0000000001B26424242221E020700000000B5
:104BB0000000007844424242447840E00000000097
:104BC000000000774C040404041F000000000000F3
:104BD0000000007C42023C40423E00000000000019
:104BE0000008083E0808080808300000000000001F
:104BF000000000634242424262DC0000000000000C
:104C0000000000E74224241408080000000000000F
:104C1000000000EB49495555222200000000000029
:104C20000000007624181818246E00000000000010
:104C3000000000E7422424141808080700000000C0
:104C40000000007E22100808447E000000C02020E2
:104C500020202010202020202020C0001010101024
:104C6000101010101010101010101010000608086E
:104C70000808081008080808080806000C32C200D6
:104C80000000000000000000000000000000000024
:104C90000000000000000000000000000000000014
:104CA0000000000000000000000000000000000004
:104CB00000000000000000000000000000000000F4
:104CC00000000000600060006000600060006000A4
:104CD00060004000200020002000000000000000D4
:104CE00060006000600000000000000000000000A4
:104CF0006006600630039801880044000000000050
:104D000000000000000000000000000000000000A3
:104D10000000000000000000000000000000000093
:104D2000000000001002100210021002FE07FE0731
:104D300008020801080108010801FE07FE07040136
:104D40000401040104010000000000000000000054
:104D5000000040004000F00158034C03CC034C001D
:104D600058007000E000C001C00140034C035C0328
:104D70004C034801F000400040000000000000002B
:104D8000000000000E010A01910091009100510005
:104D900051003A00AE03A0025004500448044804F5
:104DA00048048402840300000000000000000000AA
:104DB0000000000038006C006C006C006C006C009F
:104DC0002C0098071C011A01330133016301E30031
:104DD000C308C6093C0700000000000000000000F6
:104DE0000C001C001000100008000400000000006F
:104DF00000000000000000000000000000000000B3
:104E000000000000000000000000000000000000A2
:104E100000040002000180008000400040002000EB
:104E20002000200020002000200020004000400042
:104E3000800080000001000200040000000000006B
:104E400002000400080010001000200020004000B4
:104E50004000400040004000400040002000200092
:104E60001000100008000400020000000000000014
:104E700000000000000000004000C0004000460CA0
:104E80004E0FD001F0015E0F460C40004000400084
:104E90000000000000000000000000000000000012
:104EA0000000000000000000000040004000400042
:104EB00040004000FE0F4000400040004000400025
:104EC00000000000000000000000000000000000E2
:104ED00000000000000000000000000000000000D2
:104EE00000000000000000000000000000000000C2
:104EF0000C001C001000100008000400000000005E
:104F000000000000000000000000000000000000A1
:104F100000000000FE07000000000000000000008C
:104F20000000000000000000000000000000000081
:104F30000000000000000000000000000000000071
:104F40000000000000000000000000000000000061
:104F50001C001C001C0000000000000000000000FD
:104F60000004000600020003000100018000800030
:104F700040004000600020002000100010000800E9
:104F800008000C0004000600020000000000000001
:104F9000000000000000F00098010C030C0306065E
:104FA00006060606060606060606060606060C039E
:104FB0000C039801F0000000000000000000000059
:104FC00000000000000040007C0060006000600005
:104FD00060006000600060006000600060006000D1
:104FE00060006000FC030000000000000000000002
:104FF000000000000000F80084010203060306031D
:10500000000300018001C0006000200010000802C1
:1050100004020602FE030000000000000000000081
:105020000000000000007800C600860186018001B3
:105030008001C0007000800100010003000306032E
:1050400006038601F80000000000000000000000D8
:1050500000000000000080018001C001A001A0014B
:1050600090018801880184018201FE0F8001800186
:1050700080018001E0070000000000000000000047
:10508000000000000000FC03040004000400040011
:105090000400F4008C01040300030003060306036C
:1050A00082018401F8000000000000000000000000
:1050B000000000000000E00118030C030C000400D5
:1050C0000600E60116030E06060606060606040698
:1050D0000C021803F00000000000000000000000B7
:1050E000000000000000F8070C06040204010001A3
:1050F000000180008000400040004000600060002F
:10510000600060006000000000000000000000007F
:10511000000000000000F8010C0306060606060663
:105120000C021C03F000C8010C0306060606060666
:1051300006060C03F0010000000000000000000063
:10514000000000000000F0000C010C03060206063F
:105150000606060606078C0678060006000300030E
:105160000C018C017800000000000000000000002D
:10517000000000000000000000000000000000002F
:10518000E000E000E000000000000000000000007F
:10519000E000E000E000000000000000000000006F
:1051A00000000000000000000000000000000000FF
:1051B000600060000000000000000000000000002F
:1051C000000060006000400020002000000000009F
:1051D00000000000000400020001800040002000E8
:1051E00010000800040008001000200040008000AB
:1051F00000010002000400000000000000000000A8
:10520000000000000000000000000000000000009E
:10521000FE07000000000000FE0700000000000084
:10522000000000000000000000000000000000007E
:105230000000000004000800100020004000800072
:105240000001000200040002000180004000200074
:105250001000080004000000000000000000000032
:10526000000000000000E0031806040C040C0C0C05
:105270000C0C0007800140004000400000000000CE
:10528000E000E000E000000000000000000000007E
:1052900000000000E00018030C02CC056405660560
:1052A000A605B604B604B604B604B602E4010C04BE
:1052B0000C021803F00000000000000000000000D5
:1052C000000000000000600060005000D00090006E
:1052D0009000880088010801F80104030403040217
:1052E000020202060F0F0000000000000000000094
:1052F000000000000000FE008C030C030C030C03F4
:105300000C038C01FC000C030C020C060C060C06B2
:105310000C060C03FE01000000000000000000006D
:10532000000000000000E00318030C060C04040455
:1053300006000600060006000600060006040C042F
:105340000C021803F0000000000000000000000044
:105350000000000000007F008C010C030C030C0611
:105360000C060C060C060C060C060C060C060C03B0
:105370000C038C017F000000000000000000000012
:10538000000000000000FF030603060406040600F8
:1053900086008600FE008600860086000600060461
:1053A00006040602FF0300000000000000000000E9
:1053B000000000000000FF030603060406040600C8
:1053C00086008600FE008600860086000600060035
:1053D000060006001F0000000000000000000000A2
:1053E000000000000000F00018010C020C02040292
:1053F0000600060006000600C60F060306030C039F
:105400000C031803F0000000000000000000000082
:105410000000000000000F0F06060606060606063E
:1054200006060606FE070606060606060606060623
:10543000060606060F0F0000000000000000000036
:10544000000000000000FC036000600060006000DD
:10545000600060006000600060006000600060004C
:1054600060006000FC03000000000000000000007D
:10547000000000000000F807C000C000C000C0002D
:10548000C000C000C000C000C000C000C000C0001C
:10549000C000C000C000C60066003C000000000064
:1054A000000000000000CF038601C6004600260071
:1054B000160036002E006E004600C60086008601EB
:1054C000060106038F070000000000000000000036
:1054D0000000000000001F00060006000600060095
:1054E0000600060006000600060006000600060488
:1054F00006040602FF030000000000000000000098
:105500000000000000000707860386038E038E0359
:105510004E034E034A035A035A033A03320332033B
:1055200032031203870700000000000000000000A3
:105530000000000000008E0F0C021C021C0234024E
:105540003402640264024402C402840284038403B9
:10555000040304031F02000000000000000000001C
:10556000000000000000F00098010C030C02060689
:1055700006060606060606060606060606060C02C9
:105580000C039801F0000000000000000000000083
:10559000000000000000FF000603060606060606DF
:1055A000060606068603FE00060006000600060044
:1055B000060006001F0000000000000000000000C0
:1055C000000000000000F00098010C030C02060629
:1055D00006060606060606060606060676064C02B9
:1055E000CC039801F00080070003000000000000D9
:1055F000000000000000FF0106030606060606067E
:1056000006060603FE004600C60086008601060365
:10561000060306060F0E0000000000000000000058
:10562000000000000000F8020C030602060206005B
:105630000E003C00F800E0038003000702060206AB
:1056400006060C03F001000000000000000000004E
:10565000000000000000FE076204610861086000AD
:10566000600060006000600060006000600060003A
:1056700060006000F8010000000000000000000071
:105680000000000000001E070C020C020C020C02BD
:105690000C020C020C020C020C020C020C020C029A
:1056A0000C021801F00000000000000000000000E3
:1056B0000000000000000F070602040104010C01B5
:1056C0000C0188008800980098005000500070007D
:1056D000300020002000000000000000000000005A
:1056E000000000000000F70E620442044604460475
:1056F00064026402E402E4029C029C0198019801A5
:105700008801880088000000000000000000000000
:105710000000000000009E070C0108011801900025
:10572000B0006000200060006000D00090008801A0
:10573000080104038E0700000000000000000000C4
:105740000000000000000F0F060404020C02080114
:105750001801B800B00070006000600060006000D8
:1057600060006000F8010000000000000000000080
:10577000000000000000FC070C020603020180018B
:1057800080004000400020002000100018000804A5
:105790000C040402FE0300000000000000000000F2
:1057A000E003200020002000200020002000200036
:1057B00020002000200020002000200020002000E9
:1057C0002000200020002000E00300000000000076
:1057D0000000000004000400080008001000100091
:1057E00010002000200040004000C0008000800029
:1057F000000100010002000200020004000000009D
:105800007C0040004000400040004000400040005C
:105810004000400040004000400040004000400088
:1058200040004000400040007C000000000060009C
:1058300090000801000000000000000000000000CF
:105840000000000000000000000000000000000058
:105850000000000000000000000000000000000048
:105860000000000000000000000000000000000038
:105870000000000000000000000000000000000028
:1058800000000000000000000000FF0F000000000A
:105890001800600000000000000000000000000090
:1058A00000000000000000000000000000000000F8
:1058B00000000000000000000000000000000000E8
:1058C00000000000000000000000000000000000D8
:1058D000F0010C030C030003E0031C030E0306039A
:1058E00006038E0B7C0E000000000000000000008C
:1058F0000000000008000E000C000C000C000C0062
:10590000CC013C031C060C060C060C060C060C060F
:105910000C021C03E4010000000000000000000075
:105920000000000000000000000000000000000077
:10593000F0008C018C0186010600060006000602BC
:105940000C020C01F000000000000000000000004C
:10595000000000000002C003000300030003000376
:1059600078038C030C0306030603060306030603F1
:1059700004038C0778010000000000000000000014
:105980000000000000000000000000000000000017
:10599000E001180308020C060C06FC070C000C00C2
:1059A00018041802E00100000000000000000000E0
:1059B000000000000000C003600630063000300028
:1059C000FE01300030003000300030003000300088
:1059D00030003000FC01000000000000000000006A
:1059E00000000000000000000000000000000000B7
:1059F000F007D8068C018C018C019801F8000C008E
:105A0000FC00CC03060306038E03F8000000000030
:105A10000000000008000E000C000C000C000C0040
:105A2000EC011C030C030C030C030C030C030C0310
:105A30000C030C039E0700000000000000000000A3
:105A40000000000000006000600000000000400056
:105A50007C0060006000600060006000600060002A
:105A600060006000FC030000000000000000000077
:105A7000000000000000C001C001000000000001A3
:105A8000F00180018001800180018001800180019E
:105A90008001800180018001CC007C0000000000BA
:105AA0000000000008000E000C000C000C000C00B0
:105AB0008C038C008C004C006C005C008C008C0112
:105AC0000C010C039E070000000000000000000015
:105AD0000000000040007C0060006000600060008A
