:020000040800F2
:10000000680700208901000829190008AD170008B9
:10001000251900088F0200085B1F0008000000007F
:10002000000000000000000000000000ED1D0008BE
:100030009302000800000000791B0008EF1D000873
:10004000A3010008A3010008A3010008A301000800
:10005000A3010008A51B0008A3010008A3010008D4
:10006000A3010008A3010008A3010008A3010008E0
:10007000A3010008A3010008A3010008A3010008D0
:10008000A3010008A3010008A3010008A3010008C0
:10009000A3010008A3010008A3010008A3010008B0
:1000A000A3010008A3010008A3010008A3010008A0
:1000B000611E0008A3010008A3010008A3010008B5
:1000C000A3010008A3010008A3010008C91C00083F
:1000D000A3010008A3010008A3010008A301000870
:1000E000A3010008A3010008A301000800F002F822
:1000F00000F03AF80AA090E8000C82448344AAF188
:100100000107DA4501D100F02FF8AFF2090EBAE885
:100110000F0013F0010F18BFFB1A43F0010318473B
:10012000641F0000841F0000103A24BF78C878C103
:10013000FAD8520724BF30C830C144BF04680C60ED
:10014000704700000023002400250026103A28BF35
:1001500078C1FBD8520728BF30C148BF0B60704739
:100160001FB51FBD10B510BD00F058F81146FFF7C0
:10017000F7FF01F023FF00F076F803B4FFF7F2FF7A
:1001800003BC00F07DF8000009488047094800479B
:10019000FEE7FEE7FEE7FEE7FEE7FEE7FEE7FEE737
:1001A000FEE7FEE704480549054A064B7047000094
:1001B0005D1E0008ED0000086801002068070020AF
:1001C00068030020680300204FF0000200B51346CA
:1001D00094469646203922BFA0E80C50A0E80C5067
:1001E000B1F12001BFF4F7AF090728BFA0E80C5018
:1001F00048BF0CC05DF804EB890028BF40F8042B11
:1002000008BF704748BF20F8022B11F0804F18BF7D
:1002100000F8012B7047704770477047754600F033
:100220002BF8AE4605006946534620F00700854688
:1002300018B020B5FFF7B6FFBDE820404FF000062C
:100240004FF000074FF000084FF0000B21F00701BE
:10025000AC46ACE8C009ACE8C009ACE8C009ACE801
:10026000C0098D46704710B50446AFF300802046A4
:10027000BDE81040FFF781BF00487047080100202B
:1002800001491820ABBEFEE726000200704700BF00
:10029000FEE7704772B600BFFEE7000070B5044687
:1002A000002594F82100022803D00420A063012532
:1002B00048E02068006820F00E002168086020688F
:1002C000006820F00100216808601F49206888420A
:1002D00001D1012026E01C4914312068884201D157
:1002E00010201FE0184928312068884201D180156C
:1002F00018E015493C312068884201D1801411E092
:10030000114950312068884202D14FF4803009E011
:100310000D4964312068884202D14FF4801001E019
:100320004FF08070084908394860012084F82100A6
:1003300000BF002084F8200000BF606B10B1204691
:10034000616B8847284670BD0800024070B50446BE
:1003500000F0AEF906462546681C10B10448007846
:10036000054400BF00F0A4F9801BA842FAD370BD79
:100370000C0000202DE9F8470346002294466EE168
:100380004FF0010808FA02F4D1F8008008EA0400EE
:10039000A0427DD1DFF8DCA2D1F80480A8EB0A09E5
:1003A000D0453AD014DCB8F1030F50D009DCB8F1D5
:1003B000000F31D0B8F1010F1CD0B8F1020F49D1B4
:1003C00020E0B8F1110F18D0B8F1120F42D11EE0A1
:1003D000B9F5881F25D006DCB9F5803F20D0B9F5E6
:1003E000801F37D11AE0B9F5001F18D0B9F5041FE6
:1003F00030D117E0D1F80CC02DE0D1F80C8008F115
:10040000040C28E0D1F80C8008F1080C23E0D1F8A6
:100410000C8008F10C0C1EE000BF00BF00BF00BF45
:1004200000BF00BFD1F80880B8F1000F02D14FF033
:10043000040C0BE0D1F80880B8F1010F03D14FF0A4
:10044000080C1C6102E04FF0080C5C6103E04FF007
:10045000000C00E000BF00BFFF2801D8984601E073
:1004600003F104084646FF2802D84FEA820803E059
:10047000A2F108084FEA88084746D6F800804FF0F6
:100480000F0909FA07F928EA09080CFA07F900E048
:1004900088E048EA0908C6F80080D1F8048008F02E
:1004A0008058B8F1805F7DD100BFDFF8CC81D8F8EB
:1004B000188048F00108DFF8C091C9F81880C846D4
:1004C000D8F8188008F00108CDF8008000BF00BF00
:1004D0004FEAB9384FEA920958F829504FEA827822
:1004E0004FEA18794FF00F0808FA09F825EA0805CD
:1004F000DFF88881434502D14FF0000816E0DFF8AD
:100500008081434502D14FF001080FE0DFF874818C
:10051000434502D14FF0020808E0DFF86C81434503
:1005200002D14FF0030801E04FF004084FEA82794E
:100530004FEA197908FA09F848EA0505DFF84C810D
:100540004FEA920948F82950D1F8048008F480183D
:10055000B8F5801F0AD1DFF83881D8F8008048EA62
:100560000008DFF82C91C9F8008009E0DFF820814D
:10057000D8F8008028EA0008DFF81491C9F8008054
:10058000D1F8048008F40018B8F5001F10D1DFF886
:10059000008108F10408D8F8008048EA0008DFF874
:1005A000F09000E05AE009F10409C9F800800DE07C
:1005B000DFF8DC8008F10408D8F8008028EA000899
:1005C000DFF8CC9009F10409C9F80080D1F8048063
:1005D00008F40038B8F5003F0ED1DFF8B480A8F178
:1005E0000408D8F8008048EA0008DFF8A490A9F1D0
:1005F0000409C9F800800DE0DFF89480A8F1040830
:10060000D8F8008028EA0008DFF88490A9F10409EE
:10061000C9F80080D1F8048008F48038B8F5803F2C
:100620000ED1DFF86C80A8F10808D8F8008048EAFD
:100630000008DFF85C90A9F10809C9F800800DE016
:10064000DFF84C80A8F10808D8F8008028EA0008F4
:10065000DFF83C90A9F10809C9F80080521CD1F8D4
:10066000008028FA02F8B8F1000F7FF489AEBDE8E7
:10067000F88700000000111000100240000801403F
:10068000000C01400010014000140140080001402E
:1006900008040140024693680B400BB1012000E0C2
:1006A000002070470AB1016101E00B04036170474B
:1006B00001480068704700000400002003480068FB
:1006C0000349097808440149086070470400002084
:1006D0000C00002010B50848006840F010000649E2
:1006E0000860032000F0B0F80F2000F007F800F0D9
:1006F0002BF8002010BD00000020024070B5044619
:100700000E4800784FF47A71B1FBF0F00C4909689B
:10071000B1FBF0F5284600F041FE08B1012070BDA4
:10072000102C07D200222146501E00F04FF8054839
:10073000046001E00120F2E70020F0E70C00002057
:10074000100000200800002008B500BF154880698F
:1007500040F00100134988610846806900F00100FB
:10076000009000BF00BF00BF0846C06940F0805045
:10077000C8610846C06900F08050009000BF00BF0B
:1007800000221146052000F021F8052000F00EF8A7
:1007900000BF0549486820F0E06040F00070486004
:1007A00000BF08BD0010024000000140014608469D
:1007B000002809DB00F01F0301229A4043099B0037
:1007C00003F1E023C3F8002100BF70472DE9F05F7B
:1007D00080460D461646002701F0C2FB0746394603
:1007E0002A46334601F00700C0F1070ABAF1040FA8
:1007F00002D94FF0040A01E0C0F1070AD14600F126
:10080000040ABAF1070F02D24FF0000A01E0A0F18A
:10081000030AD4464FF0010A0AFA09FAAAF1010ABA
:100820000AEA020A0AFA0CFA4FF0010B0BFA0CFB67
:10083000ABF1010B0BEA030B4AEA0B0421464046DD
:1008400001F096FBBDE8F09F00BF00F00702064BE9
:1008500019684FF6FF031940044B0B4343EA02218A
:10086000014B196000BF70470CED00E00000FA0575
:1008700070B504460D460CB9012070BD5A48006899
:1008800000F00700A8420ED25748006820F0070089
:100890002843554908600846006800F00700A84250
:1008A00001D00120E9E7207800F0020002281DD1E4
:1008B000207800F00400042805D14C48406840F43A
:1008C000E0604A494860207800F00800082805D117
:1008D0004648406840F46050444948604348406896
:1008E00020F0F000A168084340494860207800F0FB
:1008F000010078B36068012806D13C48006800F424
:10090000003090B90120B8E76068022806D1374866
:10091000006800F0007040B90120AEE7334800687D
:1009200000F0020008B90120A7E73048406820F035
:100930000300616808432D494860FFF7B9FE064689
:1009400009E0FFF7B5FE801B41F28831884202D9E9
:10095000032092E707E02548406800F00C0061683A
:10096000B0EB810FEDD12048006800F00700A842ED
:100970000ED91D48006820F0070028431A49086076
:100980000846006800F00700A84201D0012074E783
:10099000207800F00400042807D11448406820F4AF
:1009A000E060E168084311494860207800F00800E1
:1009B000082808D10D48406820F46050216940EAB9
:1009C000C1000A49486000F019F808494968C1F3B4
:1009D0000311074A515CC840064908600648006890
:1009E000FFF78CFE002048E7002002400010024084
:1009F0004E200008100000200800002070B50021E3
:100A00000022002400230020134D696801F00C052A
:100A1000F5B1042D02D0082D19D101E00F4819E0DD
:100A20000F4DC1F38346AB5D01F4803555B10A4DDE
:100A30006D68C5F340450B4E725D084D5D43B5FBD7
:100A4000F2F402E0084D03FB05F4204602E000BF8B
:100A5000024800BF00BF70BD0010024000127A00C3
:100A60003C2000084C20000800093D00F8B5044671
:100A70000CB90120F8BD207800F00100002878D0E2
:100A8000F848406800F00C0004280CD0F548406895
:100A900000F00C00082811D1F248406800F48030C2
:100AA000B0F5803F0AD1EF48006800F4003000281C
:100AB0005FD0606800285CD10120DBE700BF606880
:100AC000B0F5803F06D1E748006840F48030E54942
:100AD000086028E0606858B9E248006820F4803077
:100AE000E04908600846006820F4802008601AE0A9
:100AF0006068B0F5A02F0BD1DA48006840F4802080
:100B0000D84908600846006840F4803008600AE070
:100B1000D448006820F48030D24908600846006854
:100B200020F48020086000BF606888B1FFF7C0FD36
:100B3000054606E0FFF7BCFD401B642801D90320F1
:100B400098E7C848006800F400300028F2D010E0B0
:100B5000FFF7AEFD054606E0FFF7AAFD401B64283F
:100B600001D9032086E7BF48006800F40030002860
:100B7000F2D1207800F00200022857D1B94840682D
:100B800000F00C0050B1B748406800F00C00082895
:100B900018D1B448406800F4803098B9B148006872
:100BA00000F0020020B12069012801D0012061E796
:100BB000AC48006820F0F800616940EAC100A9492A
:100BC000086033E02069E8B10120A7490860FFF719
:100BD0006FFD054606E0FFF76BFD401B022801D9BB
:100BE000032047E79F48006800F002000028F2D089
:100BF0009C48006820F0F800616940EAC10099490A
:100C0000086013E0002098490860FFF751FD054691
:100C100006E0FFF74DFD401B022801D9032029E71C
:100C20009048006800F002000028F2D1207800F01F
:100C3000080008282DD1A069B8B101208B490860AF
:100C4000FFF736FD054606E0FFF732FD401B0228A0
:100C500001D903200EE78348406A00F00200002813
:100C6000F2D0012000F08AFF13E000207F490860E5
:100C7000FFF71EFD054606E0FFF71AFD401B0228A0
:100C800001D90320F6E67748406A00F00200002808
:100C9000F2D1207800F00400042873D100277148B5
:100CA000C06900F0805070B900BF6E48C06940F064
:100CB00080506C49C8610846C06900F080500090BF
:100CC00000BF00BF01276A48006800F48070B0B917
:100CD0006748006840F4807065490860FFF7E8FCE9
:100CE000054606E0FFF7E4FC401B642801D9032019
:100CF000C0E65F48006800F480700028F2D000BFB2
:100D0000E068012806D15748006A40F001005549C3
:100D1000086227E0E06858B95248006A20F00100F4
:100D2000504908620846006A20F00400086219E091
:100D3000E06805280BD14B48006A40F0040049499F
:100D400008620846006A40F0010008620AE045486F
:100D5000006A20F00100434908620846006A20F05A
:100D60000400086200BFE068A0B1FFF7A1FC0546DF
:100D700009E0FFF79DFC401B41F28831884202D90F
:100D8000032077E622E03748006A00F002000028DE
:100D9000EFD012E0FFF78CFC054608E0FFF788FC77
:100DA000401B41F28831884201D9032062E62D4878
:100DB000006A00F002000028F0D1012F05D1294877
:100DC000C06920F080502749C86100BFE069C8B3FE
:100DD0002448406800F00C00082860D0E069022830
:100DE00048D1002020490866FFF762FC054606E06E
:100DF000FFF75EFC401B022801D903203AE61948A0
:100E0000006800F000700028F2D1206AB0F5803F41
:100E100007D11448406820F40030A1680843114904
:100E20004860D4E9080108430E49496821F4741167
:100E300008430C49486001200B490866FFF738FC5D
:100E4000054607E03DE0FFF733FC401B022801D9CF
:100E500003200FE60348006800F000700028F2D07D
:100E60002FE0000000100240000042428004424295
:100E700000700040002014490866FFF719FC054681
:100E800006E0FFF715FC401B022801D90320F1E51D
:100E90000E48006800F000700028F2D111E0E0690F
:100EA000012800D1E6E50948466806F48031206A49
:100EB000814204D106F47011606A814201D00120A0
:100EC000D8E50020D6E500000000424200100240B4
:100ED00070470000F8B504462068466820688568B9
:100EE000C5F3801048B905F0010030B1C6F3801099
:100EF00018B12046216C8847F8BDC5F3400030B1D9
:100F0000C6F3C01018B12046616C8847F4E7C5F3FA
:100F1000401018B9C5F38010002871D0C6F34010F6
:100F200000286DD0C5F38010F0B194F8510003286B
:100F30000ED0606D40F00400606500BF002000909E
:100F40002068C068009020688068009000BF0BE0B7
:100F500000BF002000902068C06800902068806872
:100F6000009000BF00BFC7E7C5F3401088B1606DB7
:100F700040F00100606500BF00200090206880689C
:100F800000902068006820F040002168086000BFE1
:100F900000BF606D70B32068406820F0E0002168F9
:100FA0004860012084F8510006F0020010B906F0F4
:100FB000010000B32068406820F003002168486009
:100FC000E06C50B10F48E16C4863E06CFFF766F9E4
:100FD00018B1606D40F040006065A06C50B10948E8
:100FE000A16C4863A06CFFF759F918B1606D40F02F
:100FF0004000606502E02046FFF76AFF7CE7FFE7FC
:1010000000BF79E7D91C000810B504460CB90120CF
:1010100010BD606A38B96068B0F5827F00D105E024
:101020000021E16102E00021216161610021A162F2
:1010300094F8510028B9002084F85000204600F0B0
:1010400043F8022084F851002068006820F0400036
:1010500021680860A08800F48270218901F40441AD
:101060000843A18901F400610843217C01F00201D9
:101070000843217D01F001010843218B01F4007137
:101080000843217F01F0380108432021095D01F068
:1010900080010843218D01F4005108432168086054
:1010A0000421A06901EA1040216848602068C069F5
:1010B00020F400602168C86100206065012084F888
:1010C00051000020A4E7000010B586B004460020BF
:1010D00002900390049005901D492068884235D104
:1010E00000BF1C48806940F480501A498861084656
:1010F000806900F48050019000BF00BF00BF084627
:10110000806940F0040088610846806900F00400AE
:10111000019000BF00BFA020029002200390032096
:10112000059002A90C48FFF725F940200290002005
:101130000390049002A90848FFF71CF90022114609
:101140002320FFF743FB2320FFF730FB06B010BD41
:101150000030014000100240000801402DE9FF5F0F
:101160000446884691461D460E9E012002900020AE
:10117000019000BF94F85000012803D1022004B070
:10118000BDE8F09F012084F8500000BFFFF790FAFF
:10119000074694F851B060680390AA46BBF1010F6E
:1011A0000BD00398B0F5827F04D1A06810B9BBF1D1
:1011B000040F02D002200190E9E0B8F1000F03D043
:1011C000B9F1000F00D015B901200190DFE094F8CB
:1011D0005100042802D0052084F8510000206065E9
:1011E000C4F83890E587A587C4F83080E586A586E1
:1011F000206460642068006800F04000402805D04A
:101200002068006840F0400021680860E068B0F5A0
:10121000006F4DD1606810B1BAF1010F09D1206B98
:1012200000882168C860206B801C2063E08E401E0F
:10123000E08636E02068806800F00200022810D1C5
:10124000E08E70B1029801280BD1206B00882168D4
:10125000C860206B801C2063E08E401EE08600206A
:1012600002902068806800F0010068B1E08F58B1FA
:101270002068C068A16B0880A06B801CA063E08F11
:10128000401EE08701200290FFF712FAC01BB04217
:1012900007D3701C28B103200190012084F851006D
:1012A00075E0E08E0028C5D1E08F0028C2D14DE066
:1012B000606810B1BAF1010F09D1206B0078216884
:1012C0000873206B401C2063E08E401EE08637E0F0
:1012D0002068806800F00200022810D1E08E70B112
:1012E000029801280BD1206B007821680873206BCD
:1012F000401C2063E08E401EE086002002902068A3
:10130000806800F0010068B1E08F58B12068C068C3
:10131000A16B0870A06B401CA063E08F401EE087AB
:1013200001200290FFF7C4F9C01BB04201D3701C2A
:1013300000B92EB903200190012084F8510026E065
:10134000E08E0028C4D1E08F0028C1D13A46314652
:10135000204600F0CBFC20B10120019020206065E8
:1013600015E0A06850B900BF002000902068C06858
:10137000009020688068009000BF00BF606D10B1D1
:101380000120019002E0012084F8510000BF00BF5D
:10139000002084F8500000BF0198F0E670B50446C4
:1013A0002546681EB0F1807F01D301200FE0681E42
:1013B0004FF0E02148610F214FF0FF3000F0D8FDE1
:1013C00000204FF0E021886107200861002070BDF7
:1013D0007047704730B502460B4600BF92F83C009C
:1013E000012801D1022030BD012082F83C0000BF5D
:1013F000022082F83D00106844681068816824F07B
:1014000070041868044310684460104D1068A842C6
:101410000BD01068B0F1804F07D00D4D1068A84276
:1014200003D00C4D1068A84205D121F08001586806
:10143000014310688160012082F83D0000BF002058
:1014400082F83C0000BF00BFCDE70000002C014047
:10145000000400400008004010B504460CB901200B
:1014600010BD94F83D0028B9002084F83C002046C7
:1014700000F026F8022084F83D00211D206800F0CD
:10148000F7FC012084F8460000BF84F83E000121EB
:101490003F200155402001554120015500BF00BFAC
:1014A000012084F842004320015544200155452085
:1014B000015500BF012084F83D000020D0E7000066
:1014C00038B504462068B0F1804F15D100BF0B48F5
:1014D000C06940F001000949C8610846C06900F0D0
:1014E0000100009000BF00BF002211461C20FFF742
:1014F0006DF91C20FFF75AF938BD000000100240BA
:101500002DE9F04104460D46002700BF94F83C0049
:10151000012802D10220BDE8F081012084F83C00BE
:1015200000BF022084F83D002068866826F0770618
:1015300026F47F46206886602868502833D00CDC6B
:10154000202850D004DC00284BD0102851D149E08D
:10155000302849D040284CD139E060282DD070285F
:1015600007D0B0F5805F03D0B0F5005F41D10DE04A
:1015700041E0D5E902136A68206800F0B3FC2068F6
:10158000866846F077062068866034E0D5E9021365
:101590006A68206800F0A6FC2068806840F48040FB
:1015A0002168886027E0EA686968206800F0AEFC7E
:1015B0005021206800F0A1FC1DE0EA6869682068FD
:1015C00000F0B7FC6021206800F097FC13E0EA68A7
:1015D0006968206800F09AFC4021206800F08DFCCA
:1015E00009E000BF00BF00BF2968206800F085FC4B
:1015F00001E0012700BF00BF012084F83D0000BFCB
:10160000002084F83C0000BF384684E7704710B5DE
:10161000044620680069C0F34000D8B12068C06863
:10162000C0F34000B0B16FF00200216808610120F2
:1016300020772068806900F0030018B12046FFF78A
:10164000E5FF05E0204600F0ADF8204600F0ABF8DD
:101650000020207720680069C0F38000D8B120689E
:10166000C068C0F38000B0B16FF004002168086169
:10167000022020772068806900F4407018B120466D
:10168000FFF7C4FF05E0204600F08CF8204600F08C
:101690008AF80020207720680069C0F3C000D8B124
:1016A0002068C068C0F3C000B0B16FF008002168C6
:1016B0000861042020772068C06900F0030018B199
:1016C0002046FFF7A3FF05E0204600F06BF8204618
:1016D00000F069F80020207720680069C0F300104E
:1016E000D8B12068C068C0F30010B0B16FF010002E
:1016F00021680861082020772068C06900F44070E4
:1017000018B12046FFF782FF05E0204600F04AF8B6
:10171000204600F048F8002020772068006900F09B
:10172000010058B12068C06800F0010030B16FF0CE
:10173000010021680861204600F036F82068006941
:10174000C0F3C01058B12068C068C0F3C01030B1F9
:101750006FF08000216808612046FFF739FE20689D
:101760000069C0F3801058B12068C068C0F38010D1
:1017700030B16FF0400021680861204600F015F894
:1017800020680069C0F3401058B12068C068C0F3F9
:10179000401030B16FF02000216808612046FFF74B
:1017A00018FE10BD704770477047704700BFFEE7D6
:1017B00000B585B00020019002900390049000BF16
:1017C0002948806940F020002749886108468069DF
:1017D00000F02000009000BF00BF00BF08468069F5
:1017E00040F0040088610846806900F00400009021
:1017F00000BF00BF00BF0846806940F00800886154
:101800000846806900F00800009000BF00BF002279
:1018100018211648FEF746FF002201211448FEF762
:1018200041FF182001900120029000200390022027
:10183000049001A90D48FEF79DFD01200190029042
:10184000002003900220049001A90948FEF792FDB0
:1018500002200190002002900120039001A9044879
:10186000FEF788FD05B000BD0010024000080140F1
:10187000000C014010B50E480E4908604FF482700C
:10188000486000210B488160C160016141614FF4F3
:10189000007181612021C161002101624162816288
:1018A0000A21C162FFF7B0FB08B1FEF7F3FC10BDDF
:1018B000003001402000002000B587B000200390D8
:1018C000049005900690019002904FF080401449DA
:1018D00008604720486000211148816040F2E731EC
:1018E000C160002101618161FFF7B6FD08B1FEF71B
:1018F000D1FC4FF48050039003A90948FFF700FE84
:1019000008B1FEF7C7FC00200190029001A904482D
:10191000FFF760FD08B1FEF7BDFC07B000BD000099
:101920007800002000BFFEE700BFFEE770B5044668
:101930000D46002605F07005204600F03DF80646ED
:10194000002208210A48FEF7ADFE2721D4E9002035
:10195000904745EA0601D4E900209047012208217A
:101960000348FEF79FFE204600F026F870BD0000F9
:101970000008014070B504460D462946204600F097
:101980000BFB70BD70B504460D46002208210948C6
:10199000FEF788FE2946D4E900209047FF21D4E9CC
:1019A000002090470646012208210248FEF77AFEF1
:1019B000304670BD0008014070B504460022082181
:1019C0000748FEF76FFE0721D4E90020904705463F
:1019D000012208210248FEF765FE284670BD00007E
:1019E000000801402DE9F04106460C4617461D4609
:1019F000052D01DD052000E028460546052C01DD0A
:101A0000052000E02046044604F10A00C1B22B463E
:101A10003A46304600F072F8BDE8F08170B50646EF
:101A20000D461446052C01DD052000E02046044645
:101A300023462A461021304600F060F870BD0000B1
:101A40002DE9F04104460D4600260027002208211A
:101A50002848FEF727FEE121D4E900209047012223
:101A600008212448FEF71EFE002201212248FEF72D
:101A700019FE95F820302A46A021204600F03EF8B5
:101A8000012211461C48FEF70DFE10E00120FEF772
:101A90005DFC3846791C8FB2B0F5FA7F07D120463D
:101AA00000F082F80021204600F0EAF809E0022167
:101AB0001148FEF7EFFD012800D100E000200028CA
:101AC000E4D100BF07212046FFF75CFF064606F081
:101AD000100038B1FF22E121204600F033F8102039
:101AE000BDE8F08106F0200008B12020F8E7FF20D3
:101AF000F6E7000000080140000C01402DE9F0412C
:101B000004460E4617469846002208210C48FEF768
:101B1000C9FD46F02001D4E900209047002505E0EA
:101B2000795DD4E900209047681CC5B24545F7DBD4
:101B3000012208210248FEF7B5FDBDE8F081000052
:101B40000008014070B504460D46164600220821E3
:101B50000848FEF7A7FD45F02001D4E90020904792
:101B60003146D4E900209047012208210148FEF7C0
:101B700099FD70BD000801407047000008B5084994
:101B80000968C9084FF47A72B1FBF2F14143009140
:101B900000BF00BF00994A1E00920029F9D108BD7C
:101BA00010000020704700001CB5044629A103C99D
:101BB000CDE90001002201212848FEF773FD7021C4
:101BC0002046FFF7B3FE01221C212046FFF7BAFF93
:101BD00007221D212046FFF7B5FF1C212046FFF7F5
:101BE000D1FE1D212046FFF7CDFE0A22002120460E
:101BF000FFF7A8FF002201212046FFF7A3FF0022E4
:101C000002212046FFF79EFF032211462046FFF7E0
:101C100099FF002204212046FFF794FF00220521AE
:101C20002046FFF78FFF262206212046FFF78AFF76
:101C3000052269462046FFF7F1FE05236A4600218A
:101C40002046FFF7CFFE012211460448FEF72AFD89
:101C50001CBD00003443101001000000000C0140C6
:101C600003480449486404494860044808607047D0
:101C700020000020C0000020180000207519000876
:101C800070B505460C46002600212846FFF77AFE6F
:101C90000646002201210B48FEF704FD2CB90E2256
:101CA00000212846FFF74EFF06E0012C04D10F2249
:101CB00000212846FFF746FF012211460148FEF7A2
:101CC000F1FC70BD000C014010B50248FFF702F9AD
:101CD00010BD00002000002070B505466C6A002091
:101CE000E087E0862046FFF7F3F870BDF8B50446BC
:101CF0000D4616462B46002280212046009600F015
:101D000009F828B1606D40F0200060650320F8BD3F
:101D10000020FCE72DE9F84F04460D4690461E468C
:101D2000DDF82890FEF7C4FCA0EB0900371AFEF797
:101D3000BFFC82462C480068C0F3CB30784300904B
:101D400045E0701C002842D0FEF7B2FCA0EB0A0070
:101D5000B84200D2A7BB2068406820F0E0002168AC
:101D600048606068B0F5827F0DD1A068B0F5004F83
:101D700003D0A068B0F5806F05D12068006820F01E
:101D8000400021680860A06AB0F5005F0DD100BF77
:101D90002068006820F4005021680860206800680E
:101DA00040F400502168086000BF012084F8510011
:101DB00000BF002084F8500000BF0320BDE8F88F6A
:101DC000FFE7009800B900270098401E00902068A7
:101DD00080682840A84201D1012000E00020404551
:101DE000AFD10020EAE7000010000020704710B5D6
:101DF000FEF764FC10BD00B58FB0282105A8FEF7E2
:101E0000E3F914216846FEF7DFF90120059000048C
:101E10000690002007900120099002200C90C10339
:101E20000D914FF4E0110E9105A8FEF71FFE08B1C9
:101E3000FEF730FA0F20009002200190002002905F
:101E40004FF4806003900020049002216846FEF762
:101E50000FFD08B1FEF71EFA0FB000BD704700007D
:101E600010B50248FFF7D3FB10BD0000780000203A
:101E700010B50268184B984208D0B0F1804F05D0D9
:101E8000164B984202D0164B984203D122F07002B2
:101E90004B681A43104B984208D0B0F1804F05D0E0
:101EA0000E4B984202D00E4B984203D122F440725E
:101EB000CB681A4322F080034C6943EA04020260B3
:101EC0008B68C3620B688362034B984201D10B6934
:101ED00003630123436110BD002C01400004004056
:101EE0000008004030B50C46816821F47F4142EA89
:101EF000032525432943816030BD0A46816821F0CE
:101F0000700142F0070319438160704730B50B46FA
:101F10001446026A056A25F001050562816921F00F
:101F2000F00141EA041122F00A021A4381610262BF
:101F300030BD30B50B461446026A056A25F010051F
:101F40000562816921F4704141EA043122F0A00266
:101F500042EA03128161026230BD00BFFEE7000069
:101F600002480068C0F30220704700000CED00E05A
:101F700010B5002804DB0A07130E054A135406E0C7
:101F80000A07140E034A00F00F031B1FD45410BDA0
:101F900000E400E018ED00E013B582B00446002034
:101FA00001904FF6FF70012301AA03A9009020467B
:101FB000FFF7D4F89DF8040004B010BDFEF78AFBCB
:101FC000FFF719FFFFF7F4FBFFF754FCFFF774FC72
:101FD000FFF746FE1548FFF7E7FD00211348FFF71E
:101FE0004FFE002004E00021114A1154411CC8B2E8
:101FF0002028F8DB20200E4981F8200001204870BD
:1020000013E04FF47A70FEF7A1F909490748FFF78A
:1020100017FD07210548FFF7B5FC06490870172191
:102020000248FFF7AFFC04490870EAE718000020F7
:10203000C000002000000020010000200203040571
:10204000060708090A0B0C0D0E0F10100102000004
:102050000000000000000102030406070809000058
:102060000000010203040000524632344C3031209B
:102070006973206E6F742066696E6420212E2E2E87
:1020800000000000A4200008000000202000000044
:1020900028010008C4200008200000204807000094
:1020A00044010008000000000000000010000000D3
:1020B000010000000024F400682000080000000077
:0420C000000000001C
:04000005080000ED02
:00000001FF
